{
  "contractName": "Student",
  "abi": [
    {
      "inputs": [],
      "stateMutability": "nonpayable",
      "type": "constructor"
    },
    {
      "anonymous": false,
      "inputs": [
        {
          "indexed": false,
          "internalType": "string",
          "name": "name",
          "type": "string"
        },
        {
          "indexed": false,
          "internalType": "uint32",
          "name": "admnNo",
          "type": "uint32"
        },
        {
          "indexed": false,
          "internalType": "enum Student.Department",
          "name": "dep",
          "type": "uint8"
        }
      ],
      "name": "StudentRegistered",
      "type": "event"
    },
    {
      "inputs": [
        {
          "internalType": "address",
          "name": "",
          "type": "address"
        }
      ],
      "name": "Students",
      "outputs": [
        {
          "internalType": "string",
          "name": "name",
          "type": "string"
        },
        {
          "internalType": "enum Student.Department",
          "name": "department",
          "type": "uint8"
        },
        {
          "internalType": "uint32",
          "name": "admnNo",
          "type": "uint32"
        },
        {
          "components": [
            {
              "internalType": "contract AsToken",
              "name": "acadamic",
              "type": "address"
            },
            {
              "internalType": "contract SpToken",
              "name": "sports",
              "type": "address"
            },
            {
              "internalType": "contract ScToken",
              "name": "social",
              "type": "address"
            }
          ],
          "internalType": "struct Student.Tokens",
          "name": "tokens",
          "type": "tuple"
        },
        {
          "internalType": "bool",
          "name": "isStd",
          "type": "bool"
        }
      ],
      "stateMutability": "view",
      "type": "function",
      "constant": true
    },
    {
      "inputs": [],
      "name": "owner",
      "outputs": [
        {
          "internalType": "address",
          "name": "",
          "type": "address"
        }
      ],
      "stateMutability": "view",
      "type": "function",
      "constant": true
    },
    {
      "inputs": [
        {
          "internalType": "address",
          "name": "stdAddr",
          "type": "address"
        },
        {
          "internalType": "bool",
          "name": "status",
          "type": "bool"
        }
      ],
      "name": "setStdStatus",
      "outputs": [],
      "stateMutability": "nonpayable",
      "type": "function"
    },
    {
      "inputs": [
        {
          "internalType": "address",
          "name": "stdAddr",
          "type": "address"
        }
      ],
      "name": "getStdStatus",
      "outputs": [
        {
          "internalType": "bool",
          "name": "",
          "type": "bool"
        }
      ],
      "stateMutability": "view",
      "type": "function",
      "constant": true
    },
    {
      "inputs": [
        {
          "internalType": "string",
          "name": "name",
          "type": "string"
        },
        {
          "internalType": "uint32",
          "name": "admnNo",
          "type": "uint32"
        },
        {
          "internalType": "enum Student.Department",
          "name": "department",
          "type": "uint8"
        }
      ],
      "name": "registerStudent",
      "outputs": [
        {
          "internalType": "bool",
          "name": "",
          "type": "bool"
        }
      ],
      "stateMutability": "nonpayable",
      "type": "function"
    },
    {
      "inputs": [
        {
          "internalType": "address",
          "name": "toStd",
          "type": "address"
        },
        {
          "internalType": "uint32",
          "name": "amt",
          "type": "uint32"
        },
        {
          "internalType": "enum Student.TokenKind",
          "name": "kind",
          "type": "uint8"
        },
        {
          "internalType": "address",
          "name": "own",
          "type": "address"
        }
      ],
      "name": "addToken",
      "outputs": [
        {
          "internalType": "bool",
          "name": "",
          "type": "bool"
        }
      ],
      "stateMutability": "nonpayable",
      "type": "function"
    },
    {
      "inputs": [],
      "name": "getOwner",
      "outputs": [
        {
          "internalType": "address",
          "name": "",
          "type": "address"
        }
      ],
      "stateMutability": "view",
      "type": "function",
      "constant": true
    },
    {
      "inputs": [],
      "name": "getStudent",
      "outputs": [
        {
          "components": [
            {
              "internalType": "string",
              "name": "name",
              "type": "string"
            },
            {
              "internalType": "enum Student.Department",
              "name": "department",
              "type": "uint8"
            },
            {
              "internalType": "uint32",
              "name": "admnNo",
              "type": "uint32"
            },
            {
              "components": [
                {
                  "internalType": "uint32",
                  "name": "acadamic",
                  "type": "uint32"
                },
                {
                  "internalType": "uint32",
                  "name": "sports",
                  "type": "uint32"
                },
                {
                  "internalType": "uint32",
                  "name": "social",
                  "type": "uint32"
                }
              ],
              "internalType": "struct Student.TokenCnt",
              "name": "tokens",
              "type": "tuple"
            },
            {
              "internalType": "bool",
              "name": "isStd",
              "type": "bool"
            }
          ],
          "internalType": "struct Student.StudentInfo",
          "name": "",
          "type": "tuple"
        }
      ],
      "stateMutability": "view",
      "type": "function",
      "constant": true
    },
    {
      "inputs": [
        {
          "internalType": "address",
          "name": "stdAddr",
          "type": "address"
        }
      ],
      "name": "getAcToken",
      "outputs": [
        {
          "internalType": "uint32",
          "name": "",
          "type": "uint32"
        }
      ],
      "stateMutability": "view",
      "type": "function",
      "constant": true
    },
    {
      "inputs": [],
      "name": "isOwner",
      "outputs": [
        {
          "internalType": "bool",
          "name": "",
          "type": "bool"
        }
      ],
      "stateMutability": "view",
      "type": "function",
      "constant": true
    },
    {
      "inputs": [
        {
          "internalType": "address",
          "name": "stdAddr",
          "type": "address"
        }
      ],
      "name": "getScToken",
      "outputs": [
        {
          "internalType": "uint32",
          "name": "",
          "type": "uint32"
        }
      ],
      "stateMutability": "view",
      "type": "function",
      "constant": true
    },
    {
      "inputs": [
        {
          "internalType": "address",
          "name": "stdAddr",
          "type": "address"
        }
      ],
      "name": "getSpToken",
      "outputs": [
        {
          "internalType": "uint32",
          "name": "",
          "type": "uint32"
        }
      ],
      "stateMutability": "view",
      "type": "function",
      "constant": true
    },
    {
      "inputs": [
        {
          "internalType": "address",
          "name": "stdAddr",
          "type": "address"
        }
      ],
      "name": "getAllTokens",
      "outputs": [
        {
          "components": [
            {
              "internalType": "uint32",
              "name": "acadamic",
              "type": "uint32"
            },
            {
              "internalType": "uint32",
              "name": "sports",
              "type": "uint32"
            },
            {
              "internalType": "uint32",
              "name": "social",
              "type": "uint32"
            }
          ],
          "internalType": "struct Student.TokenCnt",
          "name": "",
          "type": "tuple"
        }
      ],
      "stateMutability": "view",
      "type": "function",
      "constant": true
    },
    {
      "inputs": [
        {
          "internalType": "address",
          "name": "stdAddr",
          "type": "address"
        },
        {
          "internalType": "enum Student.TokenKind",
          "name": "kind",
          "type": "uint8"
        }
      ],
      "name": "getTokenAmt",
      "outputs": [
        {
          "internalType": "uint32",
          "name": "",
          "type": "uint32"
        }
      ],
      "stateMutability": "view",
      "type": "function",
      "constant": true
    }
  ],
  "bytecode": "0x60806040523480156200001157600080fd5b5033600360006101000a81548173ffffffffffffffffffffffffffffffffffffffff021916908373ffffffffffffffffffffffffffffffffffffffff16021790555060405162000061906200019c565b604051809103906000f0801580156200007e573d6000803e3d6000fd5b506000806101000a81548173ffffffffffffffffffffffffffffffffffffffff021916908373ffffffffffffffffffffffffffffffffffffffff160217905550604051620000cc90620001aa565b604051809103906000f080158015620000e9573d6000803e3d6000fd5b50600160006101000a81548173ffffffffffffffffffffffffffffffffffffffff021916908373ffffffffffffffffffffffffffffffffffffffff1602179055506040516200013890620001b8565b604051809103906000f08015801562000155573d6000803e3d6000fd5b50600260006101000a81548173ffffffffffffffffffffffffffffffffffffffff021916908373ffffffffffffffffffffffffffffffffffffffff160217905550620001c6565b6121bf806200281b83390190565b6121bf80620049da83390190565b6121bf8062006b9983390190565b61264580620001d66000396000f3fe608060405234801561001057600080fd5b50600436106100ea5760003560e01c80638da5cb5b1161008c578063b439548d11610066578063b439548d1461029d578063b98204f3146102bb578063cd85a958146102d7578063f9a4d7cb14610307576100ea565b80638da5cb5b146102315780638f32d59b1461024f578063a294130c1461026d576100ea565b80631c37a1c4116100c85780631c37a1c414610183578063574c9392146101b3578063893d20e8146101e357806389e98ddd14610201576100ea565b806306ef5c0b146100ef5780630d6126d214610123578063178b6de614610153575b600080fd5b61010960048036038101906101049190611936565b610337565b60405161011a959493929190611b87565b60405180910390f35b61013d60048036038101906101389190611c32565b61052b565b60405161014a9190611c99565b60405180910390f35b61016d60048036038101906101689190611936565b610a98565b60405161017a9190611d05565b60405180910390f35b61019d60048036038101906101989190611936565b610b84565b6040516101aa9190611d20565b60405180910390f35b6101cd60048036038101906101c89190611d3b565b610d04565b6040516101da9190611d20565b60405180910390f35b6101eb610d8e565b6040516101f89190611d8a565b60405180910390f35b61021b60048036038101906102169190611936565b610db8565b6040516102289190611d20565b60405180910390f35b610239610f38565b6040516102469190611d8a565b60405180910390f35b610257610f5e565b6040516102649190611c99565b60405180910390f35b61028760048036038101906102829190611936565b610fb6565b6040516102949190611c99565b60405180910390f35b6102a561100f565b6040516102b29190611ec5565b60405180910390f35b6102d560048036038101906102d09190611f13565b6112ee565b005b6102f160048036038101906102ec9190611936565b61134c565b6040516102fe9190611d20565b60405180910390f35b610321600480360381019061031c91906120ad565b6114cc565b60405161032e9190611c99565b60405180910390f35b600460205280600052604060002060009150905080600001805461035a9061214b565b80601f01602080910402602001604051908101604052809291908181526020018280546103869061214b565b80156103d35780601f106103a8576101008083540402835291602001916103d3565b820191906000526020600020905b8154815290600101906020018083116103b657829003601f168201915b5050505050908060010160009054906101000a900460ff16908060010160019054906101000a900463ffffffff1690806002016040518060600160405290816000820160009054906101000a900473ffffffffffffffffffffffffffffffffffffffff1673ffffffffffffffffffffffffffffffffffffffff1673ffffffffffffffffffffffffffffffffffffffff1681526020016001820160009054906101000a900473ffffffffffffffffffffffffffffffffffffffff1673ffffffffffffffffffffffffffffffffffffffff1673ffffffffffffffffffffffffffffffffffffffff1681526020016002820160009054906101000a900473ffffffffffffffffffffffffffffffffffffffff1673ffffffffffffffffffffffffffffffffffffffff1673ffffffffffffffffffffffffffffffffffffffff1681525050908060050160009054906101000a900460ff16905085565b600081600360009054906101000a900473ffffffffffffffffffffffffffffffffffffffff1673ffffffffffffffffffffffffffffffffffffffff168173ffffffffffffffffffffffffffffffffffffffff16146105be576040517f08c379a00000000000000000000000000000000000000000000000000000000081526004016105b5906121ee565b60405180910390fd5b8560011515600460008373ffffffffffffffffffffffffffffffffffffffff1673ffffffffffffffffffffffffffffffffffffffff16815260200190815260200160002060050160009054906101000a900460ff16151514610655576040517f08c379a000000000000000000000000000000000000000000000000000000000815260040161064c90612280565b60405180910390fd5b6000600460008973ffffffffffffffffffffffffffffffffffffffff1673ffffffffffffffffffffffffffffffffffffffff1681526020019081526020016000206040518060a00160405290816000820180546106b19061214b565b80601f01602080910402602001604051908101604052809291908181526020018280546106dd9061214b565b801561072a5780601f106106ff5761010080835404028352916020019161072a565b820191906000526020600020905b81548152906001019060200180831161070d57829003601f168201915b505050505081526020016001820160009054906101000a900460ff166005811115610758576107576119f3565b5b600581111561076a576107696119f3565b5b81526020016001820160019054906101000a900463ffffffff1663ffffffff1663ffffffff168152602001600282016040518060600160405290816000820160009054906101000a900473ffffffffffffffffffffffffffffffffffffffff1673ffffffffffffffffffffffffffffffffffffffff1673ffffffffffffffffffffffffffffffffffffffff1681526020016001820160009054906101000a900473ffffffffffffffffffffffffffffffffffffffff1673ffffffffffffffffffffffffffffffffffffffff1673ffffffffffffffffffffffffffffffffffffffff1681526020016002820160009054906101000a900473ffffffffffffffffffffffffffffffffffffffff1673ffffffffffffffffffffffffffffffffffffffff1673ffffffffffffffffffffffffffffffffffffffff168152505081526020016005820160009054906101000a900460ff1615151515815250509050600060028111156108db576108da6119f3565b5b8660028111156108ee576108ed6119f3565b5b0361096d5780606001516000015173ffffffffffffffffffffffffffffffffffffffff166340c10f1989896040518363ffffffff1660e01b81526004016109369291906122db565b600060405180830381600087803b15801561095057600080fd5b505af1158015610964573d6000803e3d6000fd5b50505050610a89565b6002808111156109805761097f6119f3565b5b866002811115610993576109926119f3565b5b03610a125780606001516040015173ffffffffffffffffffffffffffffffffffffffff166340c10f1989896040518363ffffffff1660e01b81526004016109db9291906122db565b600060405180830381600087803b1580156109f557600080fd5b505af1158015610a09573d6000803e3d6000fd5b50505050610a88565b80606001516020015173ffffffffffffffffffffffffffffffffffffffff166340c10f1989896040518363ffffffff1660e01b8152600401610a559291906122db565b600060405180830381600087803b158015610a6f57600080fd5b505af1158015610a83573d6000803e3d6000fd5b505050505b5b60019350505050949350505050565b610aa06117df565b8160011515600460008373ffffffffffffffffffffffffffffffffffffffff1673ffffffffffffffffffffffffffffffffffffffff16815260200190815260200160002060050160009054906101000a900460ff16151514610b37576040517f08c379a0000000000000000000000000000000000000000000000000000000008152600401610b2e90612280565b60405180910390fd5b6040518060600160405280610b4b8561134c565b63ffffffff168152602001610b5f85610b84565b63ffffffff168152602001610b7385610db8565b63ffffffff16815250915050919050565b60008160011515600460008373ffffffffffffffffffffffffffffffffffffffff1673ffffffffffffffffffffffffffffffffffffffff16815260200190815260200160002060050160009054906101000a900460ff16151514610c1d576040517f08c379a0000000000000000000000000000000000000000000000000000000008152600401610c1490612280565b60405180910390fd5b600460008473ffffffffffffffffffffffffffffffffffffffff1673ffffffffffffffffffffffffffffffffffffffff16815260200190815260200160002060020160010160009054906101000a900473ffffffffffffffffffffffffffffffffffffffff1673ffffffffffffffffffffffffffffffffffffffff166370a08231846040518263ffffffff1660e01b8152600401610cbb9190611d8a565b602060405180830381865afa158015610cd8573d6000803e3d6000fd5b505050506040513d601f19601f82011682018060405250810190610cfc9190612330565b915050919050565b6000806002811115610d1957610d186119f3565b5b826002811115610d2c57610d2b6119f3565b5b03610d4157610d3a8361134c565b9050610d88565b600280811115610d5457610d536119f3565b5b826002811115610d6757610d666119f3565b5b03610d7c57610d7583610db8565b9050610d88565b610d8583610b84565b90505b92915050565b6000600360009054906101000a900473ffffffffffffffffffffffffffffffffffffffff16905090565b60008160011515600460008373ffffffffffffffffffffffffffffffffffffffff1673ffffffffffffffffffffffffffffffffffffffff16815260200190815260200160002060050160009054906101000a900460ff16151514610e51576040517f08c379a0000000000000000000000000000000000000000000000000000000008152600401610e4890612280565b60405180910390fd5b600460008473ffffffffffffffffffffffffffffffffffffffff1673ffffffffffffffffffffffffffffffffffffffff16815260200190815260200160002060020160020160009054906101000a900473ffffffffffffffffffffffffffffffffffffffff1673ffffffffffffffffffffffffffffffffffffffff166370a08231846040518263ffffffff1660e01b8152600401610eef9190611d8a565b602060405180830381865afa158015610f0c573d6000803e3d6000fd5b505050506040513d601f19601f82011682018060405250810190610f309190612330565b915050919050565b600360009054906101000a900473ffffffffffffffffffffffffffffffffffffffff1681565b6000600360009054906101000a900473ffffffffffffffffffffffffffffffffffffffff1673ffffffffffffffffffffffffffffffffffffffff163373ffffffffffffffffffffffffffffffffffffffff1614905090565b6000600460008373ffffffffffffffffffffffffffffffffffffffff1673ffffffffffffffffffffffffffffffffffffffff16815260200190815260200160002060050160009054906101000a900460ff169050919050565b611017611812565b6000600460003373ffffffffffffffffffffffffffffffffffffffff1673ffffffffffffffffffffffffffffffffffffffff1681526020019081526020016000206040518060a00160405290816000820180546110739061214b565b80601f016020809104026020016040519081016040528092919081815260200182805461109f9061214b565b80156110ec5780601f106110c1576101008083540402835291602001916110ec565b820191906000526020600020905b8154815290600101906020018083116110cf57829003601f168201915b505050505081526020016001820160009054906101000a900460ff16600581111561111a576111196119f3565b5b600581111561112c5761112b6119f3565b5b81526020016001820160019054906101000a900463ffffffff1663ffffffff1663ffffffff168152602001600282016040518060600160405290816000820160009054906101000a900473ffffffffffffffffffffffffffffffffffffffff1673ffffffffffffffffffffffffffffffffffffffff1673ffffffffffffffffffffffffffffffffffffffff1681526020016001820160009054906101000a900473ffffffffffffffffffffffffffffffffffffffff1673ffffffffffffffffffffffffffffffffffffffff1673ffffffffffffffffffffffffffffffffffffffff1681526020016002820160009054906101000a900473ffffffffffffffffffffffffffffffffffffffff1673ffffffffffffffffffffffffffffffffffffffff1673ffffffffffffffffffffffffffffffffffffffff168152505081526020016005820160009054906101000a900460ff161515151581525050905060006040518060a0016040528083600001518152602001836020015160058111156112b7576112b66119f3565b5b8152602001836040015163ffffffff1681526020016112d533610a98565b8152602001836080015115158152509050809250505090565b80600460008473ffffffffffffffffffffffffffffffffffffffff1673ffffffffffffffffffffffffffffffffffffffff16815260200190815260200160002060050160006101000a81548160ff0219169083151502179055505050565b60008160011515600460008373ffffffffffffffffffffffffffffffffffffffff1673ffffffffffffffffffffffffffffffffffffffff16815260200190815260200160002060050160009054906101000a900460ff161515146113e5576040517f08c379a00000000000000000000000000000000000000000000000000000000081526004016113dc90612280565b60405180910390fd5b600460008473ffffffffffffffffffffffffffffffffffffffff1673ffffffffffffffffffffffffffffffffffffffff16815260200190815260200160002060020160000160009054906101000a900473ffffffffffffffffffffffffffffffffffffffff1673ffffffffffffffffffffffffffffffffffffffff166370a08231846040518263ffffffff1660e01b81526004016114839190611d8a565b602060405180830381865afa1580156114a0573d6000803e3d6000fd5b505050506040513d601f19601f820116820180604052508101906114c49190612330565b915050919050565b6000806040518060a001604052808681526020018460058111156114f3576114f26119f3565b5b81526020018563ffffffff16815260200161150c611711565b815260200160011515815250905080600460003373ffffffffffffffffffffffffffffffffffffffff1673ffffffffffffffffffffffffffffffffffffffff168152602001908152602001600020600082015181600001908161156f91906124ff565b5060208201518160010160006101000a81548160ff0219169083600581111561159b5761159a6119f3565b5b021790555060408201518160010160016101000a81548163ffffffff021916908363ffffffff16021790555060608201518160020160008201518160000160006101000a81548173ffffffffffffffffffffffffffffffffffffffff021916908373ffffffffffffffffffffffffffffffffffffffff16021790555060208201518160010160006101000a81548173ffffffffffffffffffffffffffffffffffffffff021916908373ffffffffffffffffffffffffffffffffffffffff16021790555060408201518160020160006101000a81548173ffffffffffffffffffffffffffffffffffffffff021916908373ffffffffffffffffffffffffffffffffffffffff160217905550505060808201518160050160006101000a81548160ff0219169083151502179055509050507fccc7469bdb6af6e734a92c535225a870e4bcb2a95a514f4a1725518337a522348585856040516116fd939291906125d1565b60405180910390a160019150509392505050565b611719611861565b604051806060016040528060008054906101000a900473ffffffffffffffffffffffffffffffffffffffff1673ffffffffffffffffffffffffffffffffffffffff168152602001600160009054906101000a900473ffffffffffffffffffffffffffffffffffffffff1673ffffffffffffffffffffffffffffffffffffffff168152602001600260009054906101000a900473ffffffffffffffffffffffffffffffffffffffff1673ffffffffffffffffffffffffffffffffffffffff16815250905090565b6040518060600160405280600063ffffffff168152602001600063ffffffff168152602001600063ffffffff1681525090565b6040518060a001604052806060815260200160006005811115611838576118376119f3565b5b8152602001600063ffffffff1681526020016118526117df565b81526020016000151581525090565b6040518060600160405280600073ffffffffffffffffffffffffffffffffffffffff168152602001600073ffffffffffffffffffffffffffffffffffffffff168152602001600073ffffffffffffffffffffffffffffffffffffffff1681525090565b6000604051905090565b600080fd5b600080fd5b600073ffffffffffffffffffffffffffffffffffffffff82169050919050565b6000611903826118d8565b9050919050565b611913816118f8565b811461191e57600080fd5b50565b6000813590506119308161190a565b92915050565b60006020828403121561194c5761194b6118ce565b5b600061195a84828501611921565b91505092915050565b600081519050919050565b600082825260208201905092915050565b60005b8381101561199d578082015181840152602081019050611982565b60008484015250505050565b6000601f19601f8301169050919050565b60006119c582611963565b6119cf818561196e565b93506119df81856020860161197f565b6119e8816119a9565b840191505092915050565b7f4e487b7100000000000000000000000000000000000000000000000000000000600052602160045260246000fd5b60068110611a3357611a326119f3565b5b50565b6000819050611a4482611a22565b919050565b6000611a5482611a36565b9050919050565b611a6481611a49565b82525050565b600063ffffffff82169050919050565b611a8381611a6a565b82525050565b6000819050919050565b6000611aae611aa9611aa4846118d8565b611a89565b6118d8565b9050919050565b6000611ac082611a93565b9050919050565b6000611ad282611ab5565b9050919050565b611ae281611ac7565b82525050565b6000611af382611ab5565b9050919050565b611b0381611ae8565b82525050565b6000611b1482611ab5565b9050919050565b611b2481611b09565b82525050565b606082016000820151611b406000850182611ad9565b506020820151611b536020850182611afa565b506040820151611b666040850182611b1b565b50505050565b60008115159050919050565b611b8181611b6c565b82525050565b600060e0820190508181036000830152611ba181886119ba565b9050611bb06020830187611a5b565b611bbd6040830186611a7a565b611bca6060830185611b2a565b611bd760c0830184611b78565b9695505050505050565b611bea81611a6a565b8114611bf557600080fd5b50565b600081359050611c0781611be1565b92915050565b60038110611c1a57600080fd5b50565b600081359050611c2c81611c0d565b92915050565b60008060008060808587031215611c4c57611c4b6118ce565b5b6000611c5a87828801611921565b9450506020611c6b87828801611bf8565b9350506040611c7c87828801611c1d565b9250506060611c8d87828801611921565b91505092959194509250565b6000602082019050611cae6000830184611b78565b92915050565b611cbd81611a6a565b82525050565b606082016000820151611cd96000850182611cb4565b506020820151611cec6020850182611cb4565b506040820151611cff6040850182611cb4565b50505050565b6000606082019050611d1a6000830184611cc3565b92915050565b6000602082019050611d356000830184611a7a565b92915050565b60008060408385031215611d5257611d516118ce565b5b6000611d6085828601611921565b9250506020611d7185828601611c1d565b9150509250929050565b611d84816118f8565b82525050565b6000602082019050611d9f6000830184611d7b565b92915050565b600082825260208201905092915050565b6000611dc182611963565b611dcb8185611da5565b9350611ddb81856020860161197f565b611de4816119a9565b840191505092915050565b611df881611a49565b82525050565b606082016000820151611e146000850182611cb4565b506020820151611e276020850182611cb4565b506040820151611e3a6040850182611cb4565b50505050565b611e4981611b6c565b82525050565b600060e0830160008301518482036000860152611e6c8282611db6565b9150506020830151611e816020860182611def565b506040830151611e946040860182611cb4565b506060830151611ea76060860182611dfe565b506080830151611eba60c0860182611e40565b508091505092915050565b60006020820190508181036000830152611edf8184611e4f565b905092915050565b611ef081611b6c565b8114611efb57600080fd5b50565b600081359050611f0d81611ee7565b92915050565b60008060408385031215611f2a57611f296118ce565b5b6000611f3885828601611921565b9250506020611f4985828601611efe565b9150509250929050565b600080fd5b600080fd5b7f4e487b7100000000000000000000000000000000000000000000000000000000600052604160045260246000fd5b611f95826119a9565b810181811067ffffffffffffffff82111715611fb457611fb3611f5d565b5b80604052505050565b6000611fc76118c4565b9050611fd38282611f8c565b919050565b600067ffffffffffffffff821115611ff357611ff2611f5d565b5b611ffc826119a9565b9050602081019050919050565b82818337600083830152505050565b600061202b61202684611fd8565b611fbd565b90508281526020810184848401111561204757612046611f58565b5b612052848285612009565b509392505050565b600082601f83011261206f5761206e611f53565b5b813561207f848260208601612018565b91505092915050565b6006811061209557600080fd5b50565b6000813590506120a781612088565b92915050565b6000806000606084860312156120c6576120c56118ce565b5b600084013567ffffffffffffffff8111156120e4576120e36118d3565b5b6120f08682870161205a565b935050602061210186828701611bf8565b925050604061211286828701612098565b9150509250925092565b7f4e487b7100000000000000000000000000000000000000000000000000000000600052602260045260246000fd5b6000600282049050600182168061216357607f821691505b6020821081036121765761217561211c565b5b50919050565b7f54686973206f7065726174696f6e2063616e6e206f6e6c79206265207065726660008201527f6f726d65642062792061646d696e6973747261746f7200000000000000000000602082015250565b60006121d860368361196e565b91506121e38261217c565b604082019050919050565b60006020820190508181036000830152612207816121cb565b9050919050565b7f54686973206f7065726174696f6e2063616e206f6e6c7920626520706572666f60008201527f6d656420627920726567697374657265642053747564656e7473000000000000602082015250565b600061226a603a8361196e565b91506122758261220e565b604082019050919050565b600060208201905081810360008301526122998161225d565b9050919050565b6000819050919050565b60006122c56122c06122bb84611a6a565b611a89565b6122a0565b9050919050565b6122d5816122aa565b82525050565b60006040820190506122f06000830185611d7b565b6122fd60208301846122cc565b9392505050565b61230d816122a0565b811461231857600080fd5b50565b60008151905061232a81612304565b92915050565b600060208284031215612346576123456118ce565b5b60006123548482850161231b565b91505092915050565b60008190508160005260206000209050919050565b60006020601f8301049050919050565b600082821b905092915050565b6000600883026123bf7fffffffffffffffffffffffffffffffffffffffffffffffffffffffffffffffff82612382565b6123c98683612382565b95508019841693508086168417925050509392505050565b60006123fc6123f76123f2846122a0565b611a89565b6122a0565b9050919050565b6000819050919050565b612416836123e1565b61242a61242282612403565b84845461238f565b825550505050565b600090565b61243f612432565b61244a81848461240d565b505050565b5b8181101561246e57612463600082612437565b600181019050612450565b5050565b601f8211156124b3576124848161235d565b61248d84612372565b8101602085101561249c578190505b6124b06124a885612372565b83018261244f565b50505b505050565b600082821c905092915050565b60006124d6600019846008026124b8565b1980831691505092915050565b60006124ef83836124c5565b9150826002028217905092915050565b61250882611963565b67ffffffffffffffff81111561252157612520611f5d565b5b61252b825461214b565b612536828285612472565b600060209050601f8311600181146125695760008415612557578287015190505b61256185826124e3565b8655506125c9565b601f1984166125778661235d565b60005b8281101561259f5784890151825560018201915060208501945060208101905061257a565b868310156125bc57848901516125b8601f8916826124c5565b8355505b6001600288020188555050505b505050505050565b600060608201905081810360008301526125eb81866119ba565b90506125fa6020830185611a7a565b6126076040830184611a5b565b94935050505056fea264697066735822122044aeeceb111c1861481619910ee469e11662cc5deface72ea5ae40e3562c40b364736f6c6343000811003360806040523480156200001157600080fd5b506040518060400160405280600781526020017f4173546f6b656e000000000000000000000000000000000000000000000000008152506040518060400160405280600381526020017f415354000000000000000000000000000000000000000000000000000000000081525081600390816200008f9190620005d0565b508060049081620000a19190620005d0565b505050620000c4620000b86200010860201b60201c565b6200011060201b60201c565b6200010233620000d9620001d660201b60201c565b600a620000e7919062000847565b6103e8620000f6919062000898565b620001df60201b60201c565b620009cf565b600033905090565b6000600560009054906101000a900473ffffffffffffffffffffffffffffffffffffffff16905081600560006101000a81548173ffffffffffffffffffffffffffffffffffffffff021916908373ffffffffffffffffffffffffffffffffffffffff1602179055508173ffffffffffffffffffffffffffffffffffffffff168173ffffffffffffffffffffffffffffffffffffffff167f8be0079c531659141344cd1fd0a4f28419497f9722a3daafe3b4186f6b6457e060405160405180910390a35050565b60006012905090565b600073ffffffffffffffffffffffffffffffffffffffff168273ffffffffffffffffffffffffffffffffffffffff160362000251576040517f08c379a0000000000000000000000000000000000000000000000000000000008152600401620002489062000944565b60405180910390fd5b62000265600083836200034c60201b60201c565b806002600082825462000279919062000966565b92505081905550806000808473ffffffffffffffffffffffffffffffffffffffff1673ffffffffffffffffffffffffffffffffffffffff168152602001908152602001600020600082825401925050819055508173ffffffffffffffffffffffffffffffffffffffff16600073ffffffffffffffffffffffffffffffffffffffff167fddf252ad1be2c89b69c2b068fc378daa952ba7f163c4a11628f55a4df523b3ef836040516200032c9190620009b2565b60405180910390a362000348600083836200035160201b60201c565b5050565b505050565b505050565b600081519050919050565b7f4e487b7100000000000000000000000000000000000000000000000000000000600052604160045260246000fd5b7f4e487b7100000000000000000000000000000000000000000000000000000000600052602260045260246000fd5b60006002820490506001821680620003d857607f821691505b602082108103620003ee57620003ed62000390565b5b50919050565b60008190508160005260206000209050919050565b60006020601f8301049050919050565b600082821b905092915050565b600060088302620004587fffffffffffffffffffffffffffffffffffffffffffffffffffffffffffffffff8262000419565b62000464868362000419565b95508019841693508086168417925050509392505050565b6000819050919050565b6000819050919050565b6000620004b1620004ab620004a5846200047c565b62000486565b6200047c565b9050919050565b6000819050919050565b620004cd8362000490565b620004e5620004dc82620004b8565b84845462000426565b825550505050565b600090565b620004fc620004ed565b62000509818484620004c2565b505050565b5b81811015620005315762000525600082620004f2565b6001810190506200050f565b5050565b601f82111562000580576200054a81620003f4565b620005558462000409565b8101602085101562000565578190505b6200057d620005748562000409565b8301826200050e565b50505b505050565b600082821c905092915050565b6000620005a56000198460080262000585565b1980831691505092915050565b6000620005c0838362000592565b9150826002028217905092915050565b620005db8262000356565b67ffffffffffffffff811115620005f757620005f662000361565b5b620006038254620003bf565b6200061082828562000535565b600060209050601f83116001811462000648576000841562000633578287015190505b6200063f8582620005b2565b865550620006af565b601f1984166200065886620003f4565b60005b8281101562000682578489015182556001820191506020850194506020810190506200065b565b86831015620006a257848901516200069e601f89168262000592565b8355505b6001600288020188555050505b505050505050565b7f4e487b7100000000000000000000000000000000000000000000000000000000600052601160045260246000fd5b60008160011c9050919050565b6000808291508390505b600185111562000745578086048111156200071d576200071c620006b7565b5b60018516156200072d5780820291505b80810290506200073d85620006e6565b9450620006fd565b94509492505050565b60008262000760576001905062000833565b8162000770576000905062000833565b81600181146200078957600281146200079457620007ca565b600191505062000833565b60ff841115620007a957620007a8620006b7565b5b8360020a915084821115620007c357620007c2620006b7565b5b5062000833565b5060208310610133831016604e8410600b8410161715620008045782820a905083811115620007fe57620007fd620006b7565b5b62000833565b620008138484846001620006f3565b925090508184048111156200082d576200082c620006b7565b5b81810290505b9392505050565b600060ff82169050919050565b600062000854826200047c565b915062000861836200083a565b9250620008907fffffffffffffffffffffffffffffffffffffffffffffffffffffffffffffffff84846200074e565b905092915050565b6000620008a5826200047c565b9150620008b2836200047c565b9250828202620008c2816200047c565b91508282048414831517620008dc57620008db620006b7565b5b5092915050565b600082825260208201905092915050565b7f45524332303a206d696e7420746f20746865207a65726f206164647265737300600082015250565b60006200092c601f83620008e3565b91506200093982620008f4565b602082019050919050565b600060208201905081810360008301526200095f816200091d565b9050919050565b600062000973826200047c565b915062000980836200047c565b92508282019050808211156200099b576200099a620006b7565b5b92915050565b620009ac816200047c565b82525050565b6000602082019050620009c96000830184620009a1565b92915050565b6117e080620009df6000396000f3fe608060405234801561001057600080fd5b50600436106100f55760003560e01c806370a0823111610097578063a457c2d711610066578063a457c2d714610276578063a9059cbb146102a6578063dd62ed3e146102d6578063f2fde38b14610306576100f5565b806370a0823114610200578063715018a6146102305780638da5cb5b1461023a57806395d89b4114610258576100f5565b806323b872dd116100d357806323b872dd14610166578063313ce5671461019657806339509351146101b457806340c10f19146101e4576100f5565b806306fdde03146100fa578063095ea7b31461011857806318160ddd14610148575b600080fd5b610102610322565b60405161010f9190610f29565b60405180910390f35b610132600480360381019061012d9190610fe4565b6103b4565b60405161013f919061103f565b60405180910390f35b6101506103d7565b60405161015d9190611069565b60405180910390f35b610180600480360381019061017b9190611084565b6103e1565b60405161018d919061103f565b60405180910390f35b61019e610410565b6040516101ab91906110f3565b60405180910390f35b6101ce60048036038101906101c99190610fe4565b610419565b6040516101db919061103f565b60405180910390f35b6101fe60048036038101906101f99190610fe4565b610450565b005b61021a6004803603810190610215919061110e565b610466565b6040516102279190611069565b60405180910390f35b6102386104ae565b005b6102426104c2565b60405161024f919061114a565b60405180910390f35b6102606104ec565b60405161026d9190610f29565b60405180910390f35b610290600480360381019061028b9190610fe4565b61057e565b60405161029d919061103f565b60405180910390f35b6102c060048036038101906102bb9190610fe4565b6105f5565b6040516102cd919061103f565b60405180910390f35b6102f060048036038101906102eb9190611165565b610618565b6040516102fd9190611069565b60405180910390f35b610320600480360381019061031b919061110e565b61069f565b005b606060038054610331906111d4565b80601f016020809104026020016040519081016040528092919081815260200182805461035d906111d4565b80156103aa5780601f1061037f576101008083540402835291602001916103aa565b820191906000526020600020905b81548152906001019060200180831161038d57829003601f168201915b5050505050905090565b6000806103bf610722565b90506103cc81858561072a565b600191505092915050565b6000600254905090565b6000806103ec610722565b90506103f98582856108f3565b61040485858561097f565b60019150509392505050565b60006012905090565b600080610424610722565b90506104458185856104368589610618565b6104409190611234565b61072a565b600191505092915050565b610458610bf5565b6104628282610c73565b5050565b60008060008373ffffffffffffffffffffffffffffffffffffffff1673ffffffffffffffffffffffffffffffffffffffff168152602001908152602001600020549050919050565b6104b6610bf5565b6104c06000610dc9565b565b6000600560009054906101000a900473ffffffffffffffffffffffffffffffffffffffff16905090565b6060600480546104fb906111d4565b80601f0160208091040260200160405190810160405280929190818152602001828054610527906111d4565b80156105745780601f1061054957610100808354040283529160200191610574565b820191906000526020600020905b81548152906001019060200180831161055757829003601f168201915b5050505050905090565b600080610589610722565b905060006105978286610618565b9050838110156105dc576040517f08c379a00000000000000000000000000000000000000000000000000000000081526004016105d3906112da565b60405180910390fd5b6105e9828686840361072a565b60019250505092915050565b600080610600610722565b905061060d81858561097f565b600191505092915050565b6000600160008473ffffffffffffffffffffffffffffffffffffffff1673ffffffffffffffffffffffffffffffffffffffff16815260200190815260200160002060008373ffffffffffffffffffffffffffffffffffffffff1673ffffffffffffffffffffffffffffffffffffffff16815260200190815260200160002054905092915050565b6106a7610bf5565b600073ffffffffffffffffffffffffffffffffffffffff168173ffffffffffffffffffffffffffffffffffffffff1603610716576040517f08c379a000000000000000000000000000000000000000000000000000000000815260040161070d9061136c565b60405180910390fd5b61071f81610dc9565b50565b600033905090565b600073ffffffffffffffffffffffffffffffffffffffff168373ffffffffffffffffffffffffffffffffffffffff1603610799576040517f08c379a0000000000000000000000000000000000000000000000000000000008152600401610790906113fe565b60405180910390fd5b600073ffffffffffffffffffffffffffffffffffffffff168273ffffffffffffffffffffffffffffffffffffffff1603610808576040517f08c379a00000000000000000000000000000000000000000000000000000000081526004016107ff90611490565b60405180910390fd5b80600160008573ffffffffffffffffffffffffffffffffffffffff1673ffffffffffffffffffffffffffffffffffffffff16815260200190815260200160002060008473ffffffffffffffffffffffffffffffffffffffff1673ffffffffffffffffffffffffffffffffffffffff168152602001908152602001600020819055508173ffffffffffffffffffffffffffffffffffffffff168373ffffffffffffffffffffffffffffffffffffffff167f8c5be1e5ebec7d5bd14f71427d1e84f3dd0314c0f7b2291e5b200ac8c7c3b925836040516108e69190611069565b60405180910390a3505050565b60006108ff8484610618565b90507fffffffffffffffffffffffffffffffffffffffffffffffffffffffffffffffff8114610979578181101561096b576040517f08c379a0000000000000000000000000000000000000000000000000000000008152600401610962906114fc565b60405180910390fd5b610978848484840361072a565b5b50505050565b600073ffffffffffffffffffffffffffffffffffffffff168373ffffffffffffffffffffffffffffffffffffffff16036109ee576040517f08c379a00000000000000000000000000000000000000000000000000000000081526004016109e59061158e565b60405180910390fd5b600073ffffffffffffffffffffffffffffffffffffffff168273ffffffffffffffffffffffffffffffffffffffff1603610a5d576040517f08c379a0000000000000000000000000000000000000000000000000000000008152600401610a5490611620565b60405180910390fd5b610a68838383610e8f565b60008060008573ffffffffffffffffffffffffffffffffffffffff1673ffffffffffffffffffffffffffffffffffffffff16815260200190815260200160002054905081811015610aee576040517f08c379a0000000000000000000000000000000000000000000000000000000008152600401610ae5906116b2565b60405180910390fd5b8181036000808673ffffffffffffffffffffffffffffffffffffffff1673ffffffffffffffffffffffffffffffffffffffff16815260200190815260200160002081905550816000808573ffffffffffffffffffffffffffffffffffffffff1673ffffffffffffffffffffffffffffffffffffffff168152602001908152602001600020600082825401925050819055508273ffffffffffffffffffffffffffffffffffffffff168473ffffffffffffffffffffffffffffffffffffffff167fddf252ad1be2c89b69c2b068fc378daa952ba7f163c4a11628f55a4df523b3ef84604051610bdc9190611069565b60405180910390a3610bef848484610e94565b50505050565b610bfd610722565b73ffffffffffffffffffffffffffffffffffffffff16610c1b6104c2565b73ffffffffffffffffffffffffffffffffffffffff1614610c71576040517f08c379a0000000000000000000000000000000000000000000000000000000008152600401610c689061171e565b60405180910390fd5b565b600073ffffffffffffffffffffffffffffffffffffffff168273ffffffffffffffffffffffffffffffffffffffff1603610ce2576040517f08c379a0000000000000000000000000000000000000000000000000000000008152600401610cd99061178a565b60405180910390fd5b610cee60008383610e8f565b8060026000828254610d009190611234565b92505081905550806000808473ffffffffffffffffffffffffffffffffffffffff1673ffffffffffffffffffffffffffffffffffffffff168152602001908152602001600020600082825401925050819055508173ffffffffffffffffffffffffffffffffffffffff16600073ffffffffffffffffffffffffffffffffffffffff167fddf252ad1be2c89b69c2b068fc378daa952ba7f163c4a11628f55a4df523b3ef83604051610db19190611069565b60405180910390a3610dc560008383610e94565b5050565b6000600560009054906101000a900473ffffffffffffffffffffffffffffffffffffffff16905081600560006101000a81548173ffffffffffffffffffffffffffffffffffffffff021916908373ffffffffffffffffffffffffffffffffffffffff1602179055508173ffffffffffffffffffffffffffffffffffffffff168173ffffffffffffffffffffffffffffffffffffffff167f8be0079c531659141344cd1fd0a4f28419497f9722a3daafe3b4186f6b6457e060405160405180910390a35050565b505050565b505050565b600081519050919050565b600082825260208201905092915050565b60005b83811015610ed3578082015181840152602081019050610eb8565b60008484015250505050565b6000601f19601f8301169050919050565b6000610efb82610e99565b610f058185610ea4565b9350610f15818560208601610eb5565b610f1e81610edf565b840191505092915050565b60006020820190508181036000830152610f438184610ef0565b905092915050565b600080fd5b600073ffffffffffffffffffffffffffffffffffffffff82169050919050565b6000610f7b82610f50565b9050919050565b610f8b81610f70565b8114610f9657600080fd5b50565b600081359050610fa881610f82565b92915050565b6000819050919050565b610fc181610fae565b8114610fcc57600080fd5b50565b600081359050610fde81610fb8565b92915050565b60008060408385031215610ffb57610ffa610f4b565b5b600061100985828601610f99565b925050602061101a85828601610fcf565b9150509250929050565b60008115159050919050565b61103981611024565b82525050565b60006020820190506110546000830184611030565b92915050565b61106381610fae565b82525050565b600060208201905061107e600083018461105a565b92915050565b60008060006060848603121561109d5761109c610f4b565b5b60006110ab86828701610f99565b93505060206110bc86828701610f99565b92505060406110cd86828701610fcf565b9150509250925092565b600060ff82169050919050565b6110ed816110d7565b82525050565b600060208201905061110860008301846110e4565b92915050565b60006020828403121561112457611123610f4b565b5b600061113284828501610f99565b91505092915050565b61114481610f70565b82525050565b600060208201905061115f600083018461113b565b92915050565b6000806040838503121561117c5761117b610f4b565b5b600061118a85828601610f99565b925050602061119b85828601610f99565b9150509250929050565b7f4e487b7100000000000000000000000000000000000000000000000000000000600052602260045260246000fd5b600060028204905060018216806111ec57607f821691505b6020821081036111ff576111fe6111a5565b5b50919050565b7f4e487b7100000000000000000000000000000000000000000000000000000000600052601160045260246000fd5b600061123f82610fae565b915061124a83610fae565b925082820190508082111561126257611261611205565b5b92915050565b7f45524332303a2064656372656173656420616c6c6f77616e63652062656c6f7760008201527f207a65726f000000000000000000000000000000000000000000000000000000602082015250565b60006112c4602583610ea4565b91506112cf82611268565b604082019050919050565b600060208201905081810360008301526112f3816112b7565b9050919050565b7f4f776e61626c653a206e6577206f776e657220697320746865207a65726f206160008201527f6464726573730000000000000000000000000000000000000000000000000000602082015250565b6000611356602683610ea4565b9150611361826112fa565b604082019050919050565b6000602082019050818103600083015261138581611349565b9050919050565b7f45524332303a20617070726f76652066726f6d20746865207a65726f2061646460008201527f7265737300000000000000000000000000000000000000000000000000000000602082015250565b60006113e8602483610ea4565b91506113f38261138c565b604082019050919050565b60006020820190508181036000830152611417816113db565b9050919050565b7f45524332303a20617070726f766520746f20746865207a65726f20616464726560008201527f7373000000000000000000000000000000000000000000000000000000000000602082015250565b600061147a602283610ea4565b91506114858261141e565b604082019050919050565b600060208201905081810360008301526114a98161146d565b9050919050565b7f45524332303a20696e73756666696369656e7420616c6c6f77616e6365000000600082015250565b60006114e6601d83610ea4565b91506114f1826114b0565b602082019050919050565b60006020820190508181036000830152611515816114d9565b9050919050565b7f45524332303a207472616e736665722066726f6d20746865207a65726f20616460008201527f6472657373000000000000000000000000000000000000000000000000000000602082015250565b6000611578602583610ea4565b91506115838261151c565b604082019050919050565b600060208201905081810360008301526115a78161156b565b9050919050565b7f45524332303a207472616e7366657220746f20746865207a65726f206164647260008201527f6573730000000000000000000000000000000000000000000000000000000000602082015250565b600061160a602383610ea4565b9150611615826115ae565b604082019050919050565b60006020820190508181036000830152611639816115fd565b9050919050565b7f45524332303a207472616e7366657220616d6f756e742065786365656473206260008201527f616c616e63650000000000000000000000000000000000000000000000000000602082015250565b600061169c602683610ea4565b91506116a782611640565b604082019050919050565b600060208201905081810360008301526116cb8161168f565b9050919050565b7f4f776e61626c653a2063616c6c6572206973206e6f7420746865206f776e6572600082015250565b6000611708602083610ea4565b9150611713826116d2565b602082019050919050565b60006020820190508181036000830152611737816116fb565b9050919050565b7f45524332303a206d696e7420746f20746865207a65726f206164647265737300600082015250565b6000611774601f83610ea4565b915061177f8261173e565b602082019050919050565b600060208201905081810360008301526117a381611767565b905091905056fea2646970667358221220e784f062922dd534cd64cc2953602b62a720e0f33182620d5a22e4b472348bd964736f6c6343000811003360806040523480156200001157600080fd5b506040518060400160405280600781526020017f5350546f6b656e000000000000000000000000000000000000000000000000008152506040518060400160405280600381526020017f535054000000000000000000000000000000000000000000000000000000000081525081600390816200008f9190620005d0565b508060049081620000a19190620005d0565b505050620000c4620000b86200010860201b60201c565b6200011060201b60201c565b6200010233620000d9620001d660201b60201c565b600a620000e7919062000847565b6103e8620000f6919062000898565b620001df60201b60201c565b620009cf565b600033905090565b6000600560009054906101000a900473ffffffffffffffffffffffffffffffffffffffff16905081600560006101000a81548173ffffffffffffffffffffffffffffffffffffffff021916908373ffffffffffffffffffffffffffffffffffffffff1602179055508173ffffffffffffffffffffffffffffffffffffffff168173ffffffffffffffffffffffffffffffffffffffff167f8be0079c531659141344cd1fd0a4f28419497f9722a3daafe3b4186f6b6457e060405160405180910390a35050565b60006012905090565b600073ffffffffffffffffffffffffffffffffffffffff168273ffffffffffffffffffffffffffffffffffffffff160362000251576040517f08c379a0000000000000000000000000000000000000000000000000000000008152600401620002489062000944565b60405180910390fd5b62000265600083836200034c60201b60201c565b806002600082825462000279919062000966565b92505081905550806000808473ffffffffffffffffffffffffffffffffffffffff1673ffffffffffffffffffffffffffffffffffffffff168152602001908152602001600020600082825401925050819055508173ffffffffffffffffffffffffffffffffffffffff16600073ffffffffffffffffffffffffffffffffffffffff167fddf252ad1be2c89b69c2b068fc378daa952ba7f163c4a11628f55a4df523b3ef836040516200032c9190620009b2565b60405180910390a362000348600083836200035160201b60201c565b5050565b505050565b505050565b600081519050919050565b7f4e487b7100000000000000000000000000000000000000000000000000000000600052604160045260246000fd5b7f4e487b7100000000000000000000000000000000000000000000000000000000600052602260045260246000fd5b60006002820490506001821680620003d857607f821691505b602082108103620003ee57620003ed62000390565b5b50919050565b60008190508160005260206000209050919050565b60006020601f8301049050919050565b600082821b905092915050565b600060088302620004587fffffffffffffffffffffffffffffffffffffffffffffffffffffffffffffffff8262000419565b62000464868362000419565b95508019841693508086168417925050509392505050565b6000819050919050565b6000819050919050565b6000620004b1620004ab620004a5846200047c565b62000486565b6200047c565b9050919050565b6000819050919050565b620004cd8362000490565b620004e5620004dc82620004b8565b84845462000426565b825550505050565b600090565b620004fc620004ed565b62000509818484620004c2565b505050565b5b81811015620005315762000525600082620004f2565b6001810190506200050f565b5050565b601f82111562000580576200054a81620003f4565b620005558462000409565b8101602085101562000565578190505b6200057d620005748562000409565b8301826200050e565b50505b505050565b600082821c905092915050565b6000620005a56000198460080262000585565b1980831691505092915050565b6000620005c0838362000592565b9150826002028217905092915050565b620005db8262000356565b67ffffffffffffffff811115620005f757620005f662000361565b5b620006038254620003bf565b6200061082828562000535565b600060209050601f83116001811462000648576000841562000633578287015190505b6200063f8582620005b2565b865550620006af565b601f1984166200065886620003f4565b60005b8281101562000682578489015182556001820191506020850194506020810190506200065b565b86831015620006a257848901516200069e601f89168262000592565b8355505b6001600288020188555050505b505050505050565b7f4e487b7100000000000000000000000000000000000000000000000000000000600052601160045260246000fd5b60008160011c9050919050565b6000808291508390505b600185111562000745578086048111156200071d576200071c620006b7565b5b60018516156200072d5780820291505b80810290506200073d85620006e6565b9450620006fd565b94509492505050565b60008262000760576001905062000833565b8162000770576000905062000833565b81600181146200078957600281146200079457620007ca565b600191505062000833565b60ff841115620007a957620007a8620006b7565b5b8360020a915084821115620007c357620007c2620006b7565b5b5062000833565b5060208310610133831016604e8410600b8410161715620008045782820a905083811115620007fe57620007fd620006b7565b5b62000833565b620008138484846001620006f3565b925090508184048111156200082d576200082c620006b7565b5b81810290505b9392505050565b600060ff82169050919050565b600062000854826200047c565b915062000861836200083a565b9250620008907fffffffffffffffffffffffffffffffffffffffffffffffffffffffffffffffff84846200074e565b905092915050565b6000620008a5826200047c565b9150620008b2836200047c565b9250828202620008c2816200047c565b91508282048414831517620008dc57620008db620006b7565b5b5092915050565b600082825260208201905092915050565b7f45524332303a206d696e7420746f20746865207a65726f206164647265737300600082015250565b60006200092c601f83620008e3565b91506200093982620008f4565b602082019050919050565b600060208201905081810360008301526200095f816200091d565b9050919050565b600062000973826200047c565b915062000980836200047c565b92508282019050808211156200099b576200099a620006b7565b5b92915050565b620009ac816200047c565b82525050565b6000602082019050620009c96000830184620009a1565b92915050565b6117e080620009df6000396000f3fe608060405234801561001057600080fd5b50600436106100f55760003560e01c806370a0823111610097578063a457c2d711610066578063a457c2d714610276578063a9059cbb146102a6578063dd62ed3e146102d6578063f2fde38b14610306576100f5565b806370a0823114610200578063715018a6146102305780638da5cb5b1461023a57806395d89b4114610258576100f5565b806323b872dd116100d357806323b872dd14610166578063313ce5671461019657806339509351146101b457806340c10f19146101e4576100f5565b806306fdde03146100fa578063095ea7b31461011857806318160ddd14610148575b600080fd5b610102610322565b60405161010f9190610f29565b60405180910390f35b610132600480360381019061012d9190610fe4565b6103b4565b60405161013f919061103f565b60405180910390f35b6101506103d7565b60405161015d9190611069565b60405180910390f35b610180600480360381019061017b9190611084565b6103e1565b60405161018d919061103f565b60405180910390f35b61019e610410565b6040516101ab91906110f3565b60405180910390f35b6101ce60048036038101906101c99190610fe4565b610419565b6040516101db919061103f565b60405180910390f35b6101fe60048036038101906101f99190610fe4565b610450565b005b61021a6004803603810190610215919061110e565b610466565b6040516102279190611069565b60405180910390f35b6102386104ae565b005b6102426104c2565b60405161024f919061114a565b60405180910390f35b6102606104ec565b60405161026d9190610f29565b60405180910390f35b610290600480360381019061028b9190610fe4565b61057e565b60405161029d919061103f565b60405180910390f35b6102c060048036038101906102bb9190610fe4565b6105f5565b6040516102cd919061103f565b60405180910390f35b6102f060048036038101906102eb9190611165565b610618565b6040516102fd9190611069565b60405180910390f35b610320600480360381019061031b919061110e565b61069f565b005b606060038054610331906111d4565b80601f016020809104026020016040519081016040528092919081815260200182805461035d906111d4565b80156103aa5780601f1061037f576101008083540402835291602001916103aa565b820191906000526020600020905b81548152906001019060200180831161038d57829003601f168201915b5050505050905090565b6000806103bf610722565b90506103cc81858561072a565b600191505092915050565b6000600254905090565b6000806103ec610722565b90506103f98582856108f3565b61040485858561097f565b60019150509392505050565b60006012905090565b600080610424610722565b90506104458185856104368589610618565b6104409190611234565b61072a565b600191505092915050565b610458610bf5565b6104628282610c73565b5050565b60008060008373ffffffffffffffffffffffffffffffffffffffff1673ffffffffffffffffffffffffffffffffffffffff168152602001908152602001600020549050919050565b6104b6610bf5565b6104c06000610dc9565b565b6000600560009054906101000a900473ffffffffffffffffffffffffffffffffffffffff16905090565b6060600480546104fb906111d4565b80601f0160208091040260200160405190810160405280929190818152602001828054610527906111d4565b80156105745780601f1061054957610100808354040283529160200191610574565b820191906000526020600020905b81548152906001019060200180831161055757829003601f168201915b5050505050905090565b600080610589610722565b905060006105978286610618565b9050838110156105dc576040517f08c379a00000000000000000000000000000000000000000000000000000000081526004016105d3906112da565b60405180910390fd5b6105e9828686840361072a565b60019250505092915050565b600080610600610722565b905061060d81858561097f565b600191505092915050565b6000600160008473ffffffffffffffffffffffffffffffffffffffff1673ffffffffffffffffffffffffffffffffffffffff16815260200190815260200160002060008373ffffffffffffffffffffffffffffffffffffffff1673ffffffffffffffffffffffffffffffffffffffff16815260200190815260200160002054905092915050565b6106a7610bf5565b600073ffffffffffffffffffffffffffffffffffffffff168173ffffffffffffffffffffffffffffffffffffffff1603610716576040517f08c379a000000000000000000000000000000000000000000000000000000000815260040161070d9061136c565b60405180910390fd5b61071f81610dc9565b50565b600033905090565b600073ffffffffffffffffffffffffffffffffffffffff168373ffffffffffffffffffffffffffffffffffffffff1603610799576040517f08c379a0000000000000000000000000000000000000000000000000000000008152600401610790906113fe565b60405180910390fd5b600073ffffffffffffffffffffffffffffffffffffffff168273ffffffffffffffffffffffffffffffffffffffff1603610808576040517f08c379a00000000000000000000000000000000000000000000000000000000081526004016107ff90611490565b60405180910390fd5b80600160008573ffffffffffffffffffffffffffffffffffffffff1673ffffffffffffffffffffffffffffffffffffffff16815260200190815260200160002060008473ffffffffffffffffffffffffffffffffffffffff1673ffffffffffffffffffffffffffffffffffffffff168152602001908152602001600020819055508173ffffffffffffffffffffffffffffffffffffffff168373ffffffffffffffffffffffffffffffffffffffff167f8c5be1e5ebec7d5bd14f71427d1e84f3dd0314c0f7b2291e5b200ac8c7c3b925836040516108e69190611069565b60405180910390a3505050565b60006108ff8484610618565b90507fffffffffffffffffffffffffffffffffffffffffffffffffffffffffffffffff8114610979578181101561096b576040517f08c379a0000000000000000000000000000000000000000000000000000000008152600401610962906114fc565b60405180910390fd5b610978848484840361072a565b5b50505050565b600073ffffffffffffffffffffffffffffffffffffffff168373ffffffffffffffffffffffffffffffffffffffff16036109ee576040517f08c379a00000000000000000000000000000000000000000000000000000000081526004016109e59061158e565b60405180910390fd5b600073ffffffffffffffffffffffffffffffffffffffff168273ffffffffffffffffffffffffffffffffffffffff1603610a5d576040517f08c379a0000000000000000000000000000000000000000000000000000000008152600401610a5490611620565b60405180910390fd5b610a68838383610e8f565b60008060008573ffffffffffffffffffffffffffffffffffffffff1673ffffffffffffffffffffffffffffffffffffffff16815260200190815260200160002054905081811015610aee576040517f08c379a0000000000000000000000000000000000000000000000000000000008152600401610ae5906116b2565b60405180910390fd5b8181036000808673ffffffffffffffffffffffffffffffffffffffff1673ffffffffffffffffffffffffffffffffffffffff16815260200190815260200160002081905550816000808573ffffffffffffffffffffffffffffffffffffffff1673ffffffffffffffffffffffffffffffffffffffff168152602001908152602001600020600082825401925050819055508273ffffffffffffffffffffffffffffffffffffffff168473ffffffffffffffffffffffffffffffffffffffff167fddf252ad1be2c89b69c2b068fc378daa952ba7f163c4a11628f55a4df523b3ef84604051610bdc9190611069565b60405180910390a3610bef848484610e94565b50505050565b610bfd610722565b73ffffffffffffffffffffffffffffffffffffffff16610c1b6104c2565b73ffffffffffffffffffffffffffffffffffffffff1614610c71576040517f08c379a0000000000000000000000000000000000000000000000000000000008152600401610c689061171e565b60405180910390fd5b565b600073ffffffffffffffffffffffffffffffffffffffff168273ffffffffffffffffffffffffffffffffffffffff1603610ce2576040517f08c379a0000000000000000000000000000000000000000000000000000000008152600401610cd99061178a565b60405180910390fd5b610cee60008383610e8f565b8060026000828254610d009190611234565b92505081905550806000808473ffffffffffffffffffffffffffffffffffffffff1673ffffffffffffffffffffffffffffffffffffffff168152602001908152602001600020600082825401925050819055508173ffffffffffffffffffffffffffffffffffffffff16600073ffffffffffffffffffffffffffffffffffffffff167fddf252ad1be2c89b69c2b068fc378daa952ba7f163c4a11628f55a4df523b3ef83604051610db19190611069565b60405180910390a3610dc560008383610e94565b5050565b6000600560009054906101000a900473ffffffffffffffffffffffffffffffffffffffff16905081600560006101000a81548173ffffffffffffffffffffffffffffffffffffffff021916908373ffffffffffffffffffffffffffffffffffffffff1602179055508173ffffffffffffffffffffffffffffffffffffffff168173ffffffffffffffffffffffffffffffffffffffff167f8be0079c531659141344cd1fd0a4f28419497f9722a3daafe3b4186f6b6457e060405160405180910390a35050565b505050565b505050565b600081519050919050565b600082825260208201905092915050565b60005b83811015610ed3578082015181840152602081019050610eb8565b60008484015250505050565b6000601f19601f8301169050919050565b6000610efb82610e99565b610f058185610ea4565b9350610f15818560208601610eb5565b610f1e81610edf565b840191505092915050565b60006020820190508181036000830152610f438184610ef0565b905092915050565b600080fd5b600073ffffffffffffffffffffffffffffffffffffffff82169050919050565b6000610f7b82610f50565b9050919050565b610f8b81610f70565b8114610f9657600080fd5b50565b600081359050610fa881610f82565b92915050565b6000819050919050565b610fc181610fae565b8114610fcc57600080fd5b50565b600081359050610fde81610fb8565b92915050565b60008060408385031215610ffb57610ffa610f4b565b5b600061100985828601610f99565b925050602061101a85828601610fcf565b9150509250929050565b60008115159050919050565b61103981611024565b82525050565b60006020820190506110546000830184611030565b92915050565b61106381610fae565b82525050565b600060208201905061107e600083018461105a565b92915050565b60008060006060848603121561109d5761109c610f4b565b5b60006110ab86828701610f99565b93505060206110bc86828701610f99565b92505060406110cd86828701610fcf565b9150509250925092565b600060ff82169050919050565b6110ed816110d7565b82525050565b600060208201905061110860008301846110e4565b92915050565b60006020828403121561112457611123610f4b565b5b600061113284828501610f99565b91505092915050565b61114481610f70565b82525050565b600060208201905061115f600083018461113b565b92915050565b6000806040838503121561117c5761117b610f4b565b5b600061118a85828601610f99565b925050602061119b85828601610f99565b9150509250929050565b7f4e487b7100000000000000000000000000000000000000000000000000000000600052602260045260246000fd5b600060028204905060018216806111ec57607f821691505b6020821081036111ff576111fe6111a5565b5b50919050565b7f4e487b7100000000000000000000000000000000000000000000000000000000600052601160045260246000fd5b600061123f82610fae565b915061124a83610fae565b925082820190508082111561126257611261611205565b5b92915050565b7f45524332303a2064656372656173656420616c6c6f77616e63652062656c6f7760008201527f207a65726f000000000000000000000000000000000000000000000000000000602082015250565b60006112c4602583610ea4565b91506112cf82611268565b604082019050919050565b600060208201905081810360008301526112f3816112b7565b9050919050565b7f4f776e61626c653a206e6577206f776e657220697320746865207a65726f206160008201527f6464726573730000000000000000000000000000000000000000000000000000602082015250565b6000611356602683610ea4565b9150611361826112fa565b604082019050919050565b6000602082019050818103600083015261138581611349565b9050919050565b7f45524332303a20617070726f76652066726f6d20746865207a65726f2061646460008201527f7265737300000000000000000000000000000000000000000000000000000000602082015250565b60006113e8602483610ea4565b91506113f38261138c565b604082019050919050565b60006020820190508181036000830152611417816113db565b9050919050565b7f45524332303a20617070726f766520746f20746865207a65726f20616464726560008201527f7373000000000000000000000000000000000000000000000000000000000000602082015250565b600061147a602283610ea4565b91506114858261141e565b604082019050919050565b600060208201905081810360008301526114a98161146d565b9050919050565b7f45524332303a20696e73756666696369656e7420616c6c6f77616e6365000000600082015250565b60006114e6601d83610ea4565b91506114f1826114b0565b602082019050919050565b60006020820190508181036000830152611515816114d9565b9050919050565b7f45524332303a207472616e736665722066726f6d20746865207a65726f20616460008201527f6472657373000000000000000000000000000000000000000000000000000000602082015250565b6000611578602583610ea4565b91506115838261151c565b604082019050919050565b600060208201905081810360008301526115a78161156b565b9050919050565b7f45524332303a207472616e7366657220746f20746865207a65726f206164647260008201527f6573730000000000000000000000000000000000000000000000000000000000602082015250565b600061160a602383610ea4565b9150611615826115ae565b604082019050919050565b60006020820190508181036000830152611639816115fd565b9050919050565b7f45524332303a207472616e7366657220616d6f756e742065786365656473206260008201527f616c616e63650000000000000000000000000000000000000000000000000000602082015250565b600061169c602683610ea4565b91506116a782611640565b604082019050919050565b600060208201905081810360008301526116cb8161168f565b9050919050565b7f4f776e61626c653a2063616c6c6572206973206e6f7420746865206f776e6572600082015250565b6000611708602083610ea4565b9150611713826116d2565b602082019050919050565b60006020820190508181036000830152611737816116fb565b9050919050565b7f45524332303a206d696e7420746f20746865207a65726f206164647265737300600082015250565b6000611774601f83610ea4565b915061177f8261173e565b602082019050919050565b600060208201905081810360008301526117a381611767565b905091905056fea2646970667358221220790849271ed5caa26dde73034c8fdda0f46be7fc0fa204242b57432cf5157af264736f6c6343000811003360806040523480156200001157600080fd5b506040518060400160405280600781526020017f5363546f6b656e000000000000000000000000000000000000000000000000008152506040518060400160405280600381526020017f534354000000000000000000000000000000000000000000000000000000000081525081600390816200008f9190620005d0565b508060049081620000a19190620005d0565b505050620000c4620000b86200010860201b60201c565b6200011060201b60201c565b6200010233620000d9620001d660201b60201c565b600a620000e7919062000847565b6103e8620000f6919062000898565b620001df60201b60201c565b620009cf565b600033905090565b6000600560009054906101000a900473ffffffffffffffffffffffffffffffffffffffff16905081600560006101000a81548173ffffffffffffffffffffffffffffffffffffffff021916908373ffffffffffffffffffffffffffffffffffffffff1602179055508173ffffffffffffffffffffffffffffffffffffffff168173ffffffffffffffffffffffffffffffffffffffff167f8be0079c531659141344cd1fd0a4f28419497f9722a3daafe3b4186f6b6457e060405160405180910390a35050565b60006012905090565b600073ffffffffffffffffffffffffffffffffffffffff168273ffffffffffffffffffffffffffffffffffffffff160362000251576040517f08c379a0000000000000000000000000000000000000000000000000000000008152600401620002489062000944565b60405180910390fd5b62000265600083836200034c60201b60201c565b806002600082825462000279919062000966565b92505081905550806000808473ffffffffffffffffffffffffffffffffffffffff1673ffffffffffffffffffffffffffffffffffffffff168152602001908152602001600020600082825401925050819055508173ffffffffffffffffffffffffffffffffffffffff16600073ffffffffffffffffffffffffffffffffffffffff167fddf252ad1be2c89b69c2b068fc378daa952ba7f163c4a11628f55a4df523b3ef836040516200032c9190620009b2565b60405180910390a362000348600083836200035160201b60201c565b5050565b505050565b505050565b600081519050919050565b7f4e487b7100000000000000000000000000000000000000000000000000000000600052604160045260246000fd5b7f4e487b7100000000000000000000000000000000000000000000000000000000600052602260045260246000fd5b60006002820490506001821680620003d857607f821691505b602082108103620003ee57620003ed62000390565b5b50919050565b60008190508160005260206000209050919050565b60006020601f8301049050919050565b600082821b905092915050565b600060088302620004587fffffffffffffffffffffffffffffffffffffffffffffffffffffffffffffffff8262000419565b62000464868362000419565b95508019841693508086168417925050509392505050565b6000819050919050565b6000819050919050565b6000620004b1620004ab620004a5846200047c565b62000486565b6200047c565b9050919050565b6000819050919050565b620004cd8362000490565b620004e5620004dc82620004b8565b84845462000426565b825550505050565b600090565b620004fc620004ed565b62000509818484620004c2565b505050565b5b81811015620005315762000525600082620004f2565b6001810190506200050f565b5050565b601f82111562000580576200054a81620003f4565b620005558462000409565b8101602085101562000565578190505b6200057d620005748562000409565b8301826200050e565b50505b505050565b600082821c905092915050565b6000620005a56000198460080262000585565b1980831691505092915050565b6000620005c0838362000592565b9150826002028217905092915050565b620005db8262000356565b67ffffffffffffffff811115620005f757620005f662000361565b5b620006038254620003bf565b6200061082828562000535565b600060209050601f83116001811462000648576000841562000633578287015190505b6200063f8582620005b2565b865550620006af565b601f1984166200065886620003f4565b60005b8281101562000682578489015182556001820191506020850194506020810190506200065b565b86831015620006a257848901516200069e601f89168262000592565b8355505b6001600288020188555050505b505050505050565b7f4e487b7100000000000000000000000000000000000000000000000000000000600052601160045260246000fd5b60008160011c9050919050565b6000808291508390505b600185111562000745578086048111156200071d576200071c620006b7565b5b60018516156200072d5780820291505b80810290506200073d85620006e6565b9450620006fd565b94509492505050565b60008262000760576001905062000833565b8162000770576000905062000833565b81600181146200078957600281146200079457620007ca565b600191505062000833565b60ff841115620007a957620007a8620006b7565b5b8360020a915084821115620007c357620007c2620006b7565b5b5062000833565b5060208310610133831016604e8410600b8410161715620008045782820a905083811115620007fe57620007fd620006b7565b5b62000833565b620008138484846001620006f3565b925090508184048111156200082d576200082c620006b7565b5b81810290505b9392505050565b600060ff82169050919050565b600062000854826200047c565b915062000861836200083a565b9250620008907fffffffffffffffffffffffffffffffffffffffffffffffffffffffffffffffff84846200074e565b905092915050565b6000620008a5826200047c565b9150620008b2836200047c565b9250828202620008c2816200047c565b91508282048414831517620008dc57620008db620006b7565b5b5092915050565b600082825260208201905092915050565b7f45524332303a206d696e7420746f20746865207a65726f206164647265737300600082015250565b60006200092c601f83620008e3565b91506200093982620008f4565b602082019050919050565b600060208201905081810360008301526200095f816200091d565b9050919050565b600062000973826200047c565b915062000980836200047c565b92508282019050808211156200099b576200099a620006b7565b5b92915050565b620009ac816200047c565b82525050565b6000602082019050620009c96000830184620009a1565b92915050565b6117e080620009df6000396000f3fe608060405234801561001057600080fd5b50600436106100f55760003560e01c806370a0823111610097578063a457c2d711610066578063a457c2d714610276578063a9059cbb146102a6578063dd62ed3e146102d6578063f2fde38b14610306576100f5565b806370a0823114610200578063715018a6146102305780638da5cb5b1461023a57806395d89b4114610258576100f5565b806323b872dd116100d357806323b872dd14610166578063313ce5671461019657806339509351146101b457806340c10f19146101e4576100f5565b806306fdde03146100fa578063095ea7b31461011857806318160ddd14610148575b600080fd5b610102610322565b60405161010f9190610f29565b60405180910390f35b610132600480360381019061012d9190610fe4565b6103b4565b60405161013f919061103f565b60405180910390f35b6101506103d7565b60405161015d9190611069565b60405180910390f35b610180600480360381019061017b9190611084565b6103e1565b60405161018d919061103f565b60405180910390f35b61019e610410565b6040516101ab91906110f3565b60405180910390f35b6101ce60048036038101906101c99190610fe4565b610419565b6040516101db919061103f565b60405180910390f35b6101fe60048036038101906101f99190610fe4565b610450565b005b61021a6004803603810190610215919061110e565b610466565b6040516102279190611069565b60405180910390f35b6102386104ae565b005b6102426104c2565b60405161024f919061114a565b60405180910390f35b6102606104ec565b60405161026d9190610f29565b60405180910390f35b610290600480360381019061028b9190610fe4565b61057e565b60405161029d919061103f565b60405180910390f35b6102c060048036038101906102bb9190610fe4565b6105f5565b6040516102cd919061103f565b60405180910390f35b6102f060048036038101906102eb9190611165565b610618565b6040516102fd9190611069565b60405180910390f35b610320600480360381019061031b919061110e565b61069f565b005b606060038054610331906111d4565b80601f016020809104026020016040519081016040528092919081815260200182805461035d906111d4565b80156103aa5780601f1061037f576101008083540402835291602001916103aa565b820191906000526020600020905b81548152906001019060200180831161038d57829003601f168201915b5050505050905090565b6000806103bf610722565b90506103cc81858561072a565b600191505092915050565b6000600254905090565b6000806103ec610722565b90506103f98582856108f3565b61040485858561097f565b60019150509392505050565b60006012905090565b600080610424610722565b90506104458185856104368589610618565b6104409190611234565b61072a565b600191505092915050565b610458610bf5565b6104628282610c73565b5050565b60008060008373ffffffffffffffffffffffffffffffffffffffff1673ffffffffffffffffffffffffffffffffffffffff168152602001908152602001600020549050919050565b6104b6610bf5565b6104c06000610dc9565b565b6000600560009054906101000a900473ffffffffffffffffffffffffffffffffffffffff16905090565b6060600480546104fb906111d4565b80601f0160208091040260200160405190810160405280929190818152602001828054610527906111d4565b80156105745780601f1061054957610100808354040283529160200191610574565b820191906000526020600020905b81548152906001019060200180831161055757829003601f168201915b5050505050905090565b600080610589610722565b905060006105978286610618565b9050838110156105dc576040517f08c379a00000000000000000000000000000000000000000000000000000000081526004016105d3906112da565b60405180910390fd5b6105e9828686840361072a565b60019250505092915050565b600080610600610722565b905061060d81858561097f565b600191505092915050565b6000600160008473ffffffffffffffffffffffffffffffffffffffff1673ffffffffffffffffffffffffffffffffffffffff16815260200190815260200160002060008373ffffffffffffffffffffffffffffffffffffffff1673ffffffffffffffffffffffffffffffffffffffff16815260200190815260200160002054905092915050565b6106a7610bf5565b600073ffffffffffffffffffffffffffffffffffffffff168173ffffffffffffffffffffffffffffffffffffffff1603610716576040517f08c379a000000000000000000000000000000000000000000000000000000000815260040161070d9061136c565b60405180910390fd5b61071f81610dc9565b50565b600033905090565b600073ffffffffffffffffffffffffffffffffffffffff168373ffffffffffffffffffffffffffffffffffffffff1603610799576040517f08c379a0000000000000000000000000000000000000000000000000000000008152600401610790906113fe565b60405180910390fd5b600073ffffffffffffffffffffffffffffffffffffffff168273ffffffffffffffffffffffffffffffffffffffff1603610808576040517f08c379a00000000000000000000000000000000000000000000000000000000081526004016107ff90611490565b60405180910390fd5b80600160008573ffffffffffffffffffffffffffffffffffffffff1673ffffffffffffffffffffffffffffffffffffffff16815260200190815260200160002060008473ffffffffffffffffffffffffffffffffffffffff1673ffffffffffffffffffffffffffffffffffffffff168152602001908152602001600020819055508173ffffffffffffffffffffffffffffffffffffffff168373ffffffffffffffffffffffffffffffffffffffff167f8c5be1e5ebec7d5bd14f71427d1e84f3dd0314c0f7b2291e5b200ac8c7c3b925836040516108e69190611069565b60405180910390a3505050565b60006108ff8484610618565b90507fffffffffffffffffffffffffffffffffffffffffffffffffffffffffffffffff8114610979578181101561096b576040517f08c379a0000000000000000000000000000000000000000000000000000000008152600401610962906114fc565b60405180910390fd5b610978848484840361072a565b5b50505050565b600073ffffffffffffffffffffffffffffffffffffffff168373ffffffffffffffffffffffffffffffffffffffff16036109ee576040517f08c379a00000000000000000000000000000000000000000000000000000000081526004016109e59061158e565b60405180910390fd5b600073ffffffffffffffffffffffffffffffffffffffff168273ffffffffffffffffffffffffffffffffffffffff1603610a5d576040517f08c379a0000000000000000000000000000000000000000000000000000000008152600401610a5490611620565b60405180910390fd5b610a68838383610e8f565b60008060008573ffffffffffffffffffffffffffffffffffffffff1673ffffffffffffffffffffffffffffffffffffffff16815260200190815260200160002054905081811015610aee576040517f08c379a0000000000000000000000000000000000000000000000000000000008152600401610ae5906116b2565b60405180910390fd5b8181036000808673ffffffffffffffffffffffffffffffffffffffff1673ffffffffffffffffffffffffffffffffffffffff16815260200190815260200160002081905550816000808573ffffffffffffffffffffffffffffffffffffffff1673ffffffffffffffffffffffffffffffffffffffff168152602001908152602001600020600082825401925050819055508273ffffffffffffffffffffffffffffffffffffffff168473ffffffffffffffffffffffffffffffffffffffff167fddf252ad1be2c89b69c2b068fc378daa952ba7f163c4a11628f55a4df523b3ef84604051610bdc9190611069565b60405180910390a3610bef848484610e94565b50505050565b610bfd610722565b73ffffffffffffffffffffffffffffffffffffffff16610c1b6104c2565b73ffffffffffffffffffffffffffffffffffffffff1614610c71576040517f08c379a0000000000000000000000000000000000000000000000000000000008152600401610c689061171e565b60405180910390fd5b565b600073ffffffffffffffffffffffffffffffffffffffff168273ffffffffffffffffffffffffffffffffffffffff1603610ce2576040517f08c379a0000000000000000000000000000000000000000000000000000000008152600401610cd99061178a565b60405180910390fd5b610cee60008383610e8f565b8060026000828254610d009190611234565b92505081905550806000808473ffffffffffffffffffffffffffffffffffffffff1673ffffffffffffffffffffffffffffffffffffffff168152602001908152602001600020600082825401925050819055508173ffffffffffffffffffffffffffffffffffffffff16600073ffffffffffffffffffffffffffffffffffffffff167fddf252ad1be2c89b69c2b068fc378daa952ba7f163c4a11628f55a4df523b3ef83604051610db19190611069565b60405180910390a3610dc560008383610e94565b5050565b6000600560009054906101000a900473ffffffffffffffffffffffffffffffffffffffff16905081600560006101000a81548173ffffffffffffffffffffffffffffffffffffffff021916908373ffffffffffffffffffffffffffffffffffffffff1602179055508173ffffffffffffffffffffffffffffffffffffffff168173ffffffffffffffffffffffffffffffffffffffff167f8be0079c531659141344cd1fd0a4f28419497f9722a3daafe3b4186f6b6457e060405160405180910390a35050565b505050565b505050565b600081519050919050565b600082825260208201905092915050565b60005b83811015610ed3578082015181840152602081019050610eb8565b60008484015250505050565b6000601f19601f8301169050919050565b6000610efb82610e99565b610f058185610ea4565b9350610f15818560208601610eb5565b610f1e81610edf565b840191505092915050565b60006020820190508181036000830152610f438184610ef0565b905092915050565b600080fd5b600073ffffffffffffffffffffffffffffffffffffffff82169050919050565b6000610f7b82610f50565b9050919050565b610f8b81610f70565b8114610f9657600080fd5b50565b600081359050610fa881610f82565b92915050565b6000819050919050565b610fc181610fae565b8114610fcc57600080fd5b50565b600081359050610fde81610fb8565b92915050565b60008060408385031215610ffb57610ffa610f4b565b5b600061100985828601610f99565b925050602061101a85828601610fcf565b9150509250929050565b60008115159050919050565b61103981611024565b82525050565b60006020820190506110546000830184611030565b92915050565b61106381610fae565b82525050565b600060208201905061107e600083018461105a565b92915050565b60008060006060848603121561109d5761109c610f4b565b5b60006110ab86828701610f99565b93505060206110bc86828701610f99565b92505060406110cd86828701610fcf565b9150509250925092565b600060ff82169050919050565b6110ed816110d7565b82525050565b600060208201905061110860008301846110e4565b92915050565b60006020828403121561112457611123610f4b565b5b600061113284828501610f99565b91505092915050565b61114481610f70565b82525050565b600060208201905061115f600083018461113b565b92915050565b6000806040838503121561117c5761117b610f4b565b5b600061118a85828601610f99565b925050602061119b85828601610f99565b9150509250929050565b7f4e487b7100000000000000000000000000000000000000000000000000000000600052602260045260246000fd5b600060028204905060018216806111ec57607f821691505b6020821081036111ff576111fe6111a5565b5b50919050565b7f4e487b7100000000000000000000000000000000000000000000000000000000600052601160045260246000fd5b600061123f82610fae565b915061124a83610fae565b925082820190508082111561126257611261611205565b5b92915050565b7f45524332303a2064656372656173656420616c6c6f77616e63652062656c6f7760008201527f207a65726f000000000000000000000000000000000000000000000000000000602082015250565b60006112c4602583610ea4565b91506112cf82611268565b604082019050919050565b600060208201905081810360008301526112f3816112b7565b9050919050565b7f4f776e61626c653a206e6577206f776e657220697320746865207a65726f206160008201527f6464726573730000000000000000000000000000000000000000000000000000602082015250565b6000611356602683610ea4565b9150611361826112fa565b604082019050919050565b6000602082019050818103600083015261138581611349565b9050919050565b7f45524332303a20617070726f76652066726f6d20746865207a65726f2061646460008201527f7265737300000000000000000000000000000000000000000000000000000000602082015250565b60006113e8602483610ea4565b91506113f38261138c565b604082019050919050565b60006020820190508181036000830152611417816113db565b9050919050565b7f45524332303a20617070726f766520746f20746865207a65726f20616464726560008201527f7373000000000000000000000000000000000000000000000000000000000000602082015250565b600061147a602283610ea4565b91506114858261141e565b604082019050919050565b600060208201905081810360008301526114a98161146d565b9050919050565b7f45524332303a20696e73756666696369656e7420616c6c6f77616e6365000000600082015250565b60006114e6601d83610ea4565b91506114f1826114b0565b602082019050919050565b60006020820190508181036000830152611515816114d9565b9050919050565b7f45524332303a207472616e736665722066726f6d20746865207a65726f20616460008201527f6472657373000000000000000000000000000000000000000000000000000000602082015250565b6000611578602583610ea4565b91506115838261151c565b604082019050919050565b600060208201905081810360008301526115a78161156b565b9050919050565b7f45524332303a207472616e7366657220746f20746865207a65726f206164647260008201527f6573730000000000000000000000000000000000000000000000000000000000602082015250565b600061160a602383610ea4565b9150611615826115ae565b604082019050919050565b60006020820190508181036000830152611639816115fd565b9050919050565b7f45524332303a207472616e7366657220616d6f756e742065786365656473206260008201527f616c616e63650000000000000000000000000000000000000000000000000000602082015250565b600061169c602683610ea4565b91506116a782611640565b604082019050919050565b600060208201905081810360008301526116cb8161168f565b9050919050565b7f4f776e61626c653a2063616c6c6572206973206e6f7420746865206f776e6572600082015250565b6000611708602083610ea4565b9150611713826116d2565b602082019050919050565b60006020820190508181036000830152611737816116fb565b9050919050565b7f45524332303a206d696e7420746f20746865207a65726f206164647265737300600082015250565b6000611774601f83610ea4565b915061177f8261173e565b602082019050919050565b600060208201905081810360008301526117a381611767565b905091905056fea2646970667358221220e2a26bd012e5cfdc3b088bb5abdee8f09cef24faba5473fa490aebb6c8e68aa164736f6c63430008110033",
  "immutableReferences": {},
  "source": "// SPDX-License-Identifier: MIT\npragma abicoder v2;\npragma solidity >=0.7.0 <0.9.0;\n\nimport {AsToken} from \"./AsToken.sol\";\nimport {ScToken} from \"./ScToken.sol\";\nimport {SpToken} from \"./SpToken.sol\";\n\ncontract Student {\n    AsToken stAcadamic;\n    SpToken stSports;\n    ScToken stSocial;\n    enum Department {\n        Mech,\n        EEE,\n        Civil,\n        EC,\n        CS,\n        IT\n    }\n    address public owner;\n    //Students made public for testing\n    mapping(address => StudentData) public Students;\n    struct Tokens {\n        AsToken acadamic;\n        SpToken sports;\n        ScToken social;\n    }\n    struct StudentData {\n        string name;\n        Department department;\n        uint32 admnNo;\n        Tokens tokens;\n        bool isStd;\n    }\n    struct StudentInfo {\n        string name;\n        Department department;\n        uint32 admnNo;\n        TokenCnt tokens;\n        bool isStd;\n    }\n    struct TokenCnt {\n        uint32 acadamic;\n        uint32 sports;\n        uint32 social;\n    }\n    enum TokenKind {\n        Acadamic,\n        Sports,\n        Social\n    }\n\n    constructor() {\n        owner = msg.sender;\n        stAcadamic = new AsToken();\n        stSports = new SpToken();\n        stSocial = new ScToken();\n    }\n\n    modifier onlyAdmin(address send) {\n        require(\n            send == owner,\n            \"This operation cann only be performed by administrator\"\n        );\n        _;\n    }\n\n    modifier isStudent(address stdAddr) {\n        require(\n            Students[stdAddr].isStd == true,\n            \"This operation can only be perfomed by registered Students\"\n        );\n        _;\n    }\n\n    event StudentRegistered(string name, uint32 admnNo, Department dep);\n\n    function setStdStatus(address stdAddr, bool status) external {\n        Students[stdAddr].isStd = status;\n    }\n\n    function getStdStatus(address stdAddr) external view returns (bool) {\n        return Students[stdAddr].isStd;\n    }\n\n    function registerStudent(\n        string memory name,\n        uint32 admnNo,\n        Department department\n    ) external returns (bool) {\n        StudentData memory std = StudentData({\n            name: name,\n            department: department,\n            admnNo: admnNo,\n            tokens: _setInitToken(),\n            isStd: true\n        });\n        Students[msg.sender] = std;\n        emit StudentRegistered(name, admnNo, department);\n        return true;\n    }\n\n    function _setInitToken() internal view returns (Tokens memory) {\n        return\n            Tokens({acadamic: stAcadamic, social: stSocial, sports: stSports});\n    }\n\n    function addToken(\n        address toStd,\n        uint32 amt,\n        TokenKind kind,\n        address own\n    ) external onlyAdmin(own) isStudent(toStd) returns (bool) {\n        StudentData memory std = Students[toStd];\n        if (kind == TokenKind.Acadamic) {\n            std.tokens.acadamic.mint(toStd, amt);\n        } else if (kind == TokenKind.Social) {\n            std.tokens.social.mint(toStd, amt);\n        } else {\n            std.tokens.sports.mint(toStd, amt);\n        }\n        return true;\n    }\n\n    function getOwner() external view returns (address) {\n        return owner;\n    }\n\n    function getStudent() external view returns (StudentInfo memory) {\n        StudentData memory std = Students[msg.sender];\n        StudentInfo memory stdInfo = StudentInfo({\n            name: std.name,\n            department: std.department,\n            admnNo: std.admnNo,\n            tokens: getAllTokens(msg.sender),\n            isStd: std.isStd\n        });\n        return stdInfo;\n    }\n\n    function getAcToken(address stdAddr)\n        public\n        view\n        isStudent(stdAddr)\n        returns (uint32)\n    {\n        return uint32(Students[stdAddr].tokens.acadamic.balanceOf(stdAddr));\n    }\n\n    function isOwner() external view returns (bool) {\n        return msg.sender == owner;\n    }\n\n    function getScToken(address stdAddr)\n        public\n        view\n        isStudent(stdAddr)\n        returns (uint32)\n    {\n        return uint32(Students[stdAddr].tokens.social.balanceOf(stdAddr));\n    }\n\n    function getSpToken(address stdAddr)\n        public\n        view\n        isStudent(stdAddr)\n        returns (uint32)\n    {\n        return uint32(Students[stdAddr].tokens.sports.balanceOf(stdAddr));\n    }\n\n    function getAllTokens(address stdAddr)\n        public\n        view\n        isStudent(stdAddr)\n        returns (TokenCnt memory)\n    {\n        return\n            TokenCnt({\n                acadamic: getAcToken(stdAddr),\n                social: getScToken(stdAddr),\n                sports: getSpToken(stdAddr)\n            });\n    }\n\n    function getTokenAmt(address stdAddr, TokenKind kind)\n        external\n        view\n        returns (uint32)\n    {\n        if (kind == TokenKind.Acadamic) {\n            return getAcToken(stdAddr);\n        } else if (kind == TokenKind.Social) {\n            return getScToken(stdAddr);\n        } else {\n            return getSpToken(stdAddr);\n        }\n    }\n}\n",
  "sourcePath": "/home/v4zha/mec/ast_contracts/contracts/StdTokenSys.sol",
  "compiler": {
    "name": "solc",
    "version": "0.8.17+commit.8df45f5f.Emscripten.clang"
  },
  "schemaVersion": "3.4.11",
  "updatedAt": "2022-12-18T02:25:05.535Z",
  "networkType": "ethereum",
  "devdoc": {
    "kind": "dev",
    "methods": {},
    "version": 1
  },
  "userdoc": {
    "kind": "user",
    "methods": {},
    "version": 1
  }
}