{
  "contractName": "ASTEvent",
  "abi": [
    {
      "inputs": [
        {
          "internalType": "address",
          "name": "stdContractAddress",
          "type": "address"
        }
      ],
      "stateMutability": "nonpayable",
      "type": "constructor"
    },
    {
      "anonymous": false,
      "inputs": [
        {
          "indexed": true,
          "internalType": "address",
          "name": "owner",
          "type": "address"
        },
        {
          "indexed": true,
          "internalType": "address",
          "name": "approved",
          "type": "address"
        },
        {
          "indexed": true,
          "internalType": "uint256",
          "name": "tokenId",
          "type": "uint256"
        }
      ],
      "name": "Approval",
      "type": "event"
    },
    {
      "anonymous": false,
      "inputs": [
        {
          "indexed": true,
          "internalType": "address",
          "name": "owner",
          "type": "address"
        },
        {
          "indexed": true,
          "internalType": "address",
          "name": "operator",
          "type": "address"
        },
        {
          "indexed": false,
          "internalType": "bool",
          "name": "approved",
          "type": "bool"
        }
      ],
      "name": "ApprovalForAll",
      "type": "event"
    },
    {
      "anonymous": false,
      "inputs": [
        {
          "indexed": true,
          "internalType": "address",
          "name": "from",
          "type": "address"
        },
        {
          "indexed": true,
          "internalType": "address",
          "name": "to",
          "type": "address"
        },
        {
          "indexed": true,
          "internalType": "uint256",
          "name": "tokenId",
          "type": "uint256"
        }
      ],
      "name": "Transfer",
      "type": "event"
    },
    {
      "inputs": [
        {
          "internalType": "address",
          "name": "to",
          "type": "address"
        },
        {
          "internalType": "uint256",
          "name": "tokenId",
          "type": "uint256"
        }
      ],
      "name": "approve",
      "outputs": [],
      "stateMutability": "nonpayable",
      "type": "function"
    },
    {
      "inputs": [
        {
          "internalType": "uint256",
          "name": "",
          "type": "uint256"
        }
      ],
      "name": "astEvents",
      "outputs": [
        {
          "internalType": "string",
          "name": "name",
          "type": "string"
        },
        {
          "internalType": "string",
          "name": "metadata",
          "type": "string"
        },
        {
          "internalType": "address",
          "name": "organizer",
          "type": "address"
        },
        {
          "internalType": "address",
          "name": "winner",
          "type": "address"
        },
        {
          "internalType": "enum ASTEvent.EventState",
          "name": "state",
          "type": "uint8"
        },
        {
          "internalType": "bool",
          "name": "approval",
          "type": "bool"
        },
        {
          "internalType": "enum Student.TokenKind",
          "name": "kind",
          "type": "uint8"
        },
        {
          "internalType": "uint32",
          "name": "tokenAmt",
          "type": "uint32"
        },
        {
          "internalType": "uint32",
          "name": "stakeAmt",
          "type": "uint32"
        }
      ],
      "stateMutability": "view",
      "type": "function",
      "constant": true
    },
    {
      "inputs": [
        {
          "internalType": "address",
          "name": "owner",
          "type": "address"
        }
      ],
      "name": "balanceOf",
      "outputs": [
        {
          "internalType": "uint256",
          "name": "",
          "type": "uint256"
        }
      ],
      "stateMutability": "view",
      "type": "function",
      "constant": true
    },
    {
      "inputs": [
        {
          "internalType": "uint256",
          "name": "tokenId",
          "type": "uint256"
        }
      ],
      "name": "getApproved",
      "outputs": [
        {
          "internalType": "address",
          "name": "",
          "type": "address"
        }
      ],
      "stateMutability": "view",
      "type": "function",
      "constant": true
    },
    {
      "inputs": [
        {
          "internalType": "address",
          "name": "owner",
          "type": "address"
        },
        {
          "internalType": "address",
          "name": "operator",
          "type": "address"
        }
      ],
      "name": "isApprovedForAll",
      "outputs": [
        {
          "internalType": "bool",
          "name": "",
          "type": "bool"
        }
      ],
      "stateMutability": "view",
      "type": "function",
      "constant": true
    },
    {
      "inputs": [],
      "name": "name",
      "outputs": [
        {
          "internalType": "string",
          "name": "",
          "type": "string"
        }
      ],
      "stateMutability": "view",
      "type": "function",
      "constant": true
    },
    {
      "inputs": [],
      "name": "owner",
      "outputs": [
        {
          "internalType": "address",
          "name": "",
          "type": "address"
        }
      ],
      "stateMutability": "view",
      "type": "function",
      "constant": true
    },
    {
      "inputs": [
        {
          "internalType": "uint256",
          "name": "tokenId",
          "type": "uint256"
        }
      ],
      "name": "ownerOf",
      "outputs": [
        {
          "internalType": "address",
          "name": "",
          "type": "address"
        }
      ],
      "stateMutability": "view",
      "type": "function",
      "constant": true
    },
    {
      "inputs": [
        {
          "internalType": "address",
          "name": "from",
          "type": "address"
        },
        {
          "internalType": "address",
          "name": "to",
          "type": "address"
        },
        {
          "internalType": "uint256",
          "name": "tokenId",
          "type": "uint256"
        }
      ],
      "name": "safeTransferFrom",
      "outputs": [],
      "stateMutability": "nonpayable",
      "type": "function"
    },
    {
      "inputs": [
        {
          "internalType": "address",
          "name": "from",
          "type": "address"
        },
        {
          "internalType": "address",
          "name": "to",
          "type": "address"
        },
        {
          "internalType": "uint256",
          "name": "tokenId",
          "type": "uint256"
        },
        {
          "internalType": "bytes",
          "name": "data",
          "type": "bytes"
        }
      ],
      "name": "safeTransferFrom",
      "outputs": [],
      "stateMutability": "nonpayable",
      "type": "function"
    },
    {
      "inputs": [
        {
          "internalType": "address",
          "name": "operator",
          "type": "address"
        },
        {
          "internalType": "bool",
          "name": "approved",
          "type": "bool"
        }
      ],
      "name": "setApprovalForAll",
      "outputs": [],
      "stateMutability": "nonpayable",
      "type": "function"
    },
    {
      "inputs": [
        {
          "internalType": "bytes4",
          "name": "interfaceId",
          "type": "bytes4"
        }
      ],
      "name": "supportsInterface",
      "outputs": [
        {
          "internalType": "bool",
          "name": "",
          "type": "bool"
        }
      ],
      "stateMutability": "view",
      "type": "function",
      "constant": true
    },
    {
      "inputs": [],
      "name": "symbol",
      "outputs": [
        {
          "internalType": "string",
          "name": "",
          "type": "string"
        }
      ],
      "stateMutability": "view",
      "type": "function",
      "constant": true
    },
    {
      "inputs": [],
      "name": "tokenCounter",
      "outputs": [
        {
          "internalType": "uint256",
          "name": "",
          "type": "uint256"
        }
      ],
      "stateMutability": "view",
      "type": "function",
      "constant": true
    },
    {
      "inputs": [
        {
          "internalType": "uint256",
          "name": "tokenId",
          "type": "uint256"
        }
      ],
      "name": "tokenURI",
      "outputs": [
        {
          "internalType": "string",
          "name": "",
          "type": "string"
        }
      ],
      "stateMutability": "view",
      "type": "function",
      "constant": true
    },
    {
      "inputs": [
        {
          "internalType": "address",
          "name": "from",
          "type": "address"
        },
        {
          "internalType": "address",
          "name": "to",
          "type": "address"
        },
        {
          "internalType": "uint256",
          "name": "tokenId",
          "type": "uint256"
        }
      ],
      "name": "transferFrom",
      "outputs": [],
      "stateMutability": "nonpayable",
      "type": "function"
    },
    {
      "inputs": [
        {
          "internalType": "string",
          "name": "name",
          "type": "string"
        },
        {
          "internalType": "string",
          "name": "metadata",
          "type": "string"
        },
        {
          "internalType": "address",
          "name": "organizer",
          "type": "address"
        },
        {
          "internalType": "enum Student.TokenKind",
          "name": "kind",
          "type": "uint8"
        },
        {
          "internalType": "uint32",
          "name": "tokenAmt",
          "type": "uint32"
        },
        {
          "internalType": "uint32",
          "name": "stakeAmt",
          "type": "uint32"
        }
      ],
      "name": "createASTEvent",
      "outputs": [],
      "stateMutability": "nonpayable",
      "type": "function"
    },
    {
      "inputs": [
        {
          "internalType": "address",
          "name": "winStd",
          "type": "address"
        },
        {
          "internalType": "uint256",
          "name": "tokenId",
          "type": "uint256"
        }
      ],
      "name": "endASTEvent",
      "outputs": [],
      "stateMutability": "nonpayable",
      "type": "function"
    },
    {
      "inputs": [
        {
          "internalType": "uint256",
          "name": "tokenId",
          "type": "uint256"
        }
      ],
      "name": "setStdEventLive",
      "outputs": [],
      "stateMutability": "nonpayable",
      "type": "function"
    },
    {
      "inputs": [
        {
          "internalType": "uint256",
          "name": "tokenId",
          "type": "uint256"
        }
      ],
      "name": "approveEvent",
      "outputs": [
        {
          "internalType": "bool",
          "name": "",
          "type": "bool"
        }
      ],
      "stateMutability": "nonpayable",
      "type": "function"
    },
    {
      "inputs": [
        {
          "internalType": "uint256",
          "name": "tokenId",
          "type": "uint256"
        }
      ],
      "name": "getASTEventData",
      "outputs": [
        {
          "components": [
            {
              "internalType": "string",
              "name": "name",
              "type": "string"
            },
            {
              "internalType": "string",
              "name": "metadata",
              "type": "string"
            },
            {
              "internalType": "address",
              "name": "organizer",
              "type": "address"
            },
            {
              "internalType": "address",
              "name": "winner",
              "type": "address"
            },
            {
              "internalType": "enum ASTEvent.EventState",
              "name": "state",
              "type": "uint8"
            },
            {
              "internalType": "bool",
              "name": "approval",
              "type": "bool"
            },
            {
              "internalType": "enum Student.TokenKind",
              "name": "kind",
              "type": "uint8"
            },
            {
              "internalType": "uint32",
              "name": "tokenAmt",
              "type": "uint32"
            },
            {
              "internalType": "uint32",
              "name": "stakeAmt",
              "type": "uint32"
            }
          ],
          "internalType": "struct ASTEvent.EventDetails",
          "name": "",
          "type": "tuple"
        }
      ],
      "stateMutability": "view",
      "type": "function",
      "constant": true
    },
    {
      "inputs": [
        {
          "internalType": "string",
          "name": "eventName",
          "type": "string"
        },
        {
          "internalType": "string",
          "name": "metadata",
          "type": "string"
        },
        {
          "internalType": "enum Student.TokenKind",
          "name": "kind",
          "type": "uint8"
        },
        {
          "internalType": "uint32",
          "name": "tokenAmt",
          "type": "uint32"
        },
        {
          "internalType": "uint32",
          "name": "stakeAmt",
          "type": "uint32"
        }
      ],
      "name": "submitEvent",
      "outputs": [],
      "stateMutability": "nonpayable",
      "type": "function"
    }
  ],
  "bytecode": "0x60806040523480156200001157600080fd5b5060405162004831380380620048318339818101604052810190620000379190620001c4565b6040518060400160405280600881526020017f53544576656e74730000000000000000000000000000000000000000000000008152506040518060400160405280600381526020017f53544500000000000000000000000000000000000000000000000000000000008152508160009081620000b4919062000470565b508060019081620000c6919062000470565b50505080600860006101000a81548173ffffffffffffffffffffffffffffffffffffffff021916908373ffffffffffffffffffffffffffffffffffffffff16021790555033600660006101000a81548173ffffffffffffffffffffffffffffffffffffffff021916908373ffffffffffffffffffffffffffffffffffffffff16021790555060006007819055505062000557565b600080fd5b600073ffffffffffffffffffffffffffffffffffffffff82169050919050565b60006200018c826200015f565b9050919050565b6200019e816200017f565b8114620001aa57600080fd5b50565b600081519050620001be8162000193565b92915050565b600060208284031215620001dd57620001dc6200015a565b5b6000620001ed84828501620001ad565b91505092915050565b600081519050919050565b7f4e487b7100000000000000000000000000000000000000000000000000000000600052604160045260246000fd5b7f4e487b7100000000000000000000000000000000000000000000000000000000600052602260045260246000fd5b600060028204905060018216806200027857607f821691505b6020821081036200028e576200028d62000230565b5b50919050565b60008190508160005260206000209050919050565b60006020601f8301049050919050565b600082821b905092915050565b600060088302620002f87fffffffffffffffffffffffffffffffffffffffffffffffffffffffffffffffff82620002b9565b620003048683620002b9565b95508019841693508086168417925050509392505050565b6000819050919050565b6000819050919050565b6000620003516200034b62000345846200031c565b62000326565b6200031c565b9050919050565b6000819050919050565b6200036d8362000330565b620003856200037c8262000358565b848454620002c6565b825550505050565b600090565b6200039c6200038d565b620003a981848462000362565b505050565b5b81811015620003d157620003c560008262000392565b600181019050620003af565b5050565b601f8211156200042057620003ea8162000294565b620003f584620002a9565b8101602085101562000405578190505b6200041d6200041485620002a9565b830182620003ae565b50505b505050565b600082821c905092915050565b6000620004456000198460080262000425565b1980831691505092915050565b600062000460838362000432565b9150826002028217905092915050565b6200047b82620001f6565b67ffffffffffffffff81111562000497576200049662000201565b5b620004a382546200025f565b620004b0828285620003d5565b600060209050601f831160018114620004e85760008415620004d3578287015190505b620004df858262000452565b8655506200054f565b601f198416620004f88662000294565b60005b828110156200052257848901518255600182019150602085019450602081019050620004fb565b868310156200054257848901516200053e601f89168262000432565b8355505b6001600288020188555050505b505050505050565b6142ca80620005676000396000f3fe608060405234801561001057600080fd5b50600436106101425760003560e01c80637357d870116100b8578063b88d4fde1161007c578063b88d4fde146103a1578063c87b56dd146103bd578063d082e381146103ed578063d754eb3d1461040b578063e985e9c514610427578063f08304ac1461045757610142565b80637357d870146102f55780638da5cb5b14610311578063947e3bb71461032f57806395d89b4114610367578063a22cb4651461038557610142565b806323b872dd1161010a57806323b872dd14610211578063271a121d1461022d57806342842e0e146102495780635f1cd158146102655780636352211e1461029557806370a08231146102c557610142565b806301ffc9a71461014757806306fdde0314610177578063081812fc14610195578063095ea7b3146101c5578063201ed3aa146101e1575b600080fd5b610161600480360381019061015c919061293d565b610473565b60405161016e9190612985565b60405180910390f35b61017f610555565b60405161018c9190612a30565b60405180910390f35b6101af60048036038101906101aa9190612a88565b6105e7565b6040516101bc9190612af6565b60405180910390f35b6101df60048036038101906101da9190612b3d565b61062d565b005b6101fb60048036038101906101f69190612a88565b610744565b6040516102089190612d8f565b60405180910390f35b61022b60048036038101906102269190612db1565b610a1f565b005b61024760048036038101906102429190612a88565b610a7f565b005b610263600480360381019061025e9190612db1565b610bcc565b005b61027f600480360381019061027a9190612a88565b610bec565b60405161028c9190612985565b60405180910390f35b6102af60048036038101906102aa9190612a88565b610cb6565b6040516102bc9190612af6565b60405180910390f35b6102df60048036038101906102da9190612e04565b610d3c565b6040516102ec9190612e40565b60405180910390f35b61030f600480360381019061030a9190612fe1565b610df3565b005b610319610e08565b6040516103269190612af6565b60405180910390f35b61034960048036038101906103449190612a88565b610e2e565b60405161035e999897969594939291906130c1565b60405180910390f35b61036f611013565b60405161037c9190612a30565b60405180910390f35b61039f600480360381019061039a9190613188565b6110a5565b005b6103bb60048036038101906103b69190613269565b6110bb565b005b6103d760048036038101906103d29190612a88565b61111d565b6040516103e49190612a30565b60405180910390f35b6103f5611185565b6040516104029190612e40565b60405180910390f35b61042560048036038101906104209190612b3d565b61118b565b005b610441600480360381019061043c91906132ec565b6114b8565b60405161044e9190612985565b60405180910390f35b610471600480360381019061046c919061332c565b61154c565b005b60007f80ac58cd000000000000000000000000000000000000000000000000000000007bffffffffffffffffffffffffffffffffffffffffffffffffffffffff1916827bffffffffffffffffffffffffffffffffffffffffffffffffffffffff1916148061053e57507f5b5e139f000000000000000000000000000000000000000000000000000000007bffffffffffffffffffffffffffffffffffffffffffffffffffffffff1916827bffffffffffffffffffffffffffffffffffffffffffffffffffffffff1916145b8061054e575061054d8261180e565b5b9050919050565b60606000805461056490613420565b80601f016020809104026020016040519081016040528092919081815260200182805461059090613420565b80156105dd5780601f106105b2576101008083540402835291602001916105dd565b820191906000526020600020905b8154815290600101906020018083116105c057829003601f168201915b5050505050905090565b60006105f282611878565b6004600083815260200190815260200160002060009054906101000a900473ffffffffffffffffffffffffffffffffffffffff169050919050565b600061063882610cb6565b90508073ffffffffffffffffffffffffffffffffffffffff168373ffffffffffffffffffffffffffffffffffffffff16036106a8576040517f08c379a000000000000000000000000000000000000000000000000000000000815260040161069f906134c3565b60405180910390fd5b8073ffffffffffffffffffffffffffffffffffffffff166106c76118c3565b73ffffffffffffffffffffffffffffffffffffffff1614806106f657506106f5816106f06118c3565b6114b8565b5b610735576040517f08c379a000000000000000000000000000000000000000000000000000000000815260040161072c90613555565b60405180910390fd5b61073f83836118cb565b505050565b61074c612827565b600960008381526020019081526020016000206040518061012001604052908160008201805461077b90613420565b80601f01602080910402602001604051908101604052809291908181526020018280546107a790613420565b80156107f45780601f106107c9576101008083540402835291602001916107f4565b820191906000526020600020905b8154815290600101906020018083116107d757829003601f168201915b5050505050815260200160018201805461080d90613420565b80601f016020809104026020016040519081016040528092919081815260200182805461083990613420565b80156108865780601f1061085b57610100808354040283529160200191610886565b820191906000526020600020905b81548152906001019060200180831161086957829003601f168201915b505050505081526020016002820160009054906101000a900473ffffffffffffffffffffffffffffffffffffffff1673ffffffffffffffffffffffffffffffffffffffff1673ffffffffffffffffffffffffffffffffffffffff1681526020016003820160009054906101000a900473ffffffffffffffffffffffffffffffffffffffff1673ffffffffffffffffffffffffffffffffffffffff1673ffffffffffffffffffffffffffffffffffffffff1681526020016003820160149054906101000a900460ff1660028111156109605761095f612bd6565b5b600281111561097257610971612bd6565b5b81526020016003820160159054906101000a900460ff161515151581526020016003820160169054906101000a900460ff1660028111156109b6576109b5612bd6565b5b60028111156109c8576109c7612bd6565b5b81526020016003820160179054906101000a900463ffffffff1663ffffffff1663ffffffff16815260200160038201601b9054906101000a900463ffffffff1663ffffffff1663ffffffff16815250509050919050565b610a30610a2a6118c3565b82611984565b610a6f576040517f08c379a0000000000000000000000000000000000000000000000000000000008152600401610a66906135e7565b60405180910390fd5b610a7a838383611a19565b505050565b806009600082815260200190815260200160002060020160009054906101000a900473ffffffffffffffffffffffffffffffffffffffff1673ffffffffffffffffffffffffffffffffffffffff163373ffffffffffffffffffffffffffffffffffffffff1614610b24576040517f08c379a0000000000000000000000000000000000000000000000000000000008152600401610b1b90613679565b60405180910390fd5b816009600082815260200190815260200160002060030160159054906101000a900460ff16610b88576040517f08c379a0000000000000000000000000000000000000000000000000000000008152600401610b7f9061370b565b60405180910390fd5b60016009600085815260200190815260200160002060030160146101000a81548160ff02191690836002811115610bc257610bc1612bd6565b5b0217905550505050565b610be7838383604051806020016040528060008152506110bb565b505050565b6000600660009054906101000a900473ffffffffffffffffffffffffffffffffffffffff1673ffffffffffffffffffffffffffffffffffffffff163373ffffffffffffffffffffffffffffffffffffffff1614610c7e576040517f08c379a0000000000000000000000000000000000000000000000000000000008152600401610c759061379d565b60405180910390fd5b60016009600084815260200190815260200160002060030160156101000a81548160ff02191690831515021790555060019050919050565b600080610cc283611d12565b9050600073ffffffffffffffffffffffffffffffffffffffff168173ffffffffffffffffffffffffffffffffffffffff1603610d33576040517f08c379a0000000000000000000000000000000000000000000000000000000008152600401610d2a90613809565b60405180910390fd5b80915050919050565b60008073ffffffffffffffffffffffffffffffffffffffff168273ffffffffffffffffffffffffffffffffffffffff1603610dac576040517f08c379a0000000000000000000000000000000000000000000000000000000008152600401610da39061389b565b60405180910390fd5b600360008373ffffffffffffffffffffffffffffffffffffffff1673ffffffffffffffffffffffffffffffffffffffff168152602001908152602001600020549050919050565b610e0185853386868661154c565b5050505050565b600660009054906101000a900473ffffffffffffffffffffffffffffffffffffffff1681565b6009602052806000526040600020600091509050806000018054610e5190613420565b80601f0160208091040260200160405190810160405280929190818152602001828054610e7d90613420565b8015610eca5780601f10610e9f57610100808354040283529160200191610eca565b820191906000526020600020905b815481529060010190602001808311610ead57829003601f168201915b505050505090806001018054610edf90613420565b80601f0160208091040260200160405190810160405280929190818152602001828054610f0b90613420565b8015610f585780601f10610f2d57610100808354040283529160200191610f58565b820191906000526020600020905b815481529060010190602001808311610f3b57829003601f168201915b5050505050908060020160009054906101000a900473ffffffffffffffffffffffffffffffffffffffff16908060030160009054906101000a900473ffffffffffffffffffffffffffffffffffffffff16908060030160149054906101000a900460ff16908060030160159054906101000a900460ff16908060030160169054906101000a900460ff16908060030160179054906101000a900463ffffffff169080600301601b9054906101000a900463ffffffff16905089565b60606001805461102290613420565b80601f016020809104026020016040519081016040528092919081815260200182805461104e90613420565b801561109b5780601f106110705761010080835404028352916020019161109b565b820191906000526020600020905b81548152906001019060200180831161107e57829003601f168201915b5050505050905090565b6110b76110b06118c3565b8383611d4f565b5050565b6110cc6110c66118c3565b83611984565b61110b576040517f08c379a0000000000000000000000000000000000000000000000000000000008152600401611102906135e7565b60405180910390fd5b61111784848484611ebb565b50505050565b606061112882611878565b6000611132611f17565b90506000815111611152576040518060200160405280600081525061117d565b8061115c84611f2e565b60405160200161116d9291906138f7565b6040516020818303038152906040525b915050919050565b60075481565b806009600082815260200190815260200160002060020160009054906101000a900473ffffffffffffffffffffffffffffffffffffffff1673ffffffffffffffffffffffffffffffffffffffff163373ffffffffffffffffffffffffffffffffffffffff1614611230576040517f08c379a000000000000000000000000000000000000000000000000000000000815260040161122790613679565b60405180910390fd5b816009600082815260200190815260200160002060030160159054906101000a900460ff16611294576040517f08c379a000000000000000000000000000000000000000000000000000000000815260040161128b9061370b565b60405180910390fd5b60026009600085815260200190815260200160002060030160146101000a81548160ff021916908360028111156112ce576112cd612bd6565b5b0217905550836009600085815260200190815260200160002060030160006101000a81548173ffffffffffffffffffffffffffffffffffffffff021916908373ffffffffffffffffffffffffffffffffffffffff16021790555060006009600085815260200190815260200160002060030160169054906101000a900460ff16905060006009600086815260200190815260200160002060030160179054906101000a900463ffffffff169050600860009054906101000a900473ffffffffffffffffffffffffffffffffffffffff1673ffffffffffffffffffffffffffffffffffffffff16630d6126d2878385600860009054906101000a900473ffffffffffffffffffffffffffffffffffffffff1673ffffffffffffffffffffffffffffffffffffffff1663893d20e86040518163ffffffff1660e01b8152600401602060405180830381865afa158015611429573d6000803e3d6000fd5b505050506040513d601f19601f8201168201806040525081019061144d9190613930565b6040518563ffffffff1660e01b815260040161146c949392919061395d565b6020604051808303816000875af115801561148b573d6000803e3d6000fd5b505050506040513d601f19601f820116820180604052508101906114af91906139b7565b50505050505050565b6000600560008473ffffffffffffffffffffffffffffffffffffffff1673ffffffffffffffffffffffffffffffffffffffff16815260200190815260200160002060008373ffffffffffffffffffffffffffffffffffffffff1673ffffffffffffffffffffffffffffffffffffffff16815260200190815260200160002060009054906101000a900460ff16905092915050565b83600860009054906101000a900473ffffffffffffffffffffffffffffffffffffffff1673ffffffffffffffffffffffffffffffffffffffff1663a294130c826040518263ffffffff1660e01b81526004016115a89190612af6565b602060405180830381865afa1580156115c5573d6000803e3d6000fd5b505050506040513d601f19601f820116820180604052508101906115e991906139b7565b611628576040517f08c379a000000000000000000000000000000000000000000000000000000000815260040161161f90613a56565b60405180910390fd5b848483600860009054906101000a900473ffffffffffffffffffffffffffffffffffffffff1673ffffffffffffffffffffffffffffffffffffffff1663574c939284846040518363ffffffff1660e01b8152600401611688929190613a76565b602060405180830381865afa1580156116a5573d6000803e3d6000fd5b505050506040513d601f19601f820116820180604052508101906116c99190613ab4565b63ffffffff168163ffffffff16111580156116eb575060018163ffffffff1610155b61172a576040517f08c379a000000000000000000000000000000000000000000000000000000000815260040161172190613b53565b60405180910390fd5b60006040518061012001604052808c81526020018b81526020018a73ffffffffffffffffffffffffffffffffffffffff168152602001600073ffffffffffffffffffffffffffffffffffffffff1681526020016000600281111561179157611790612bd6565b5b81526020016000151581526020018960028111156117b2576117b1612bd6565b5b81526020018863ffffffff1681526020018763ffffffff1681525090506001600760008282546117e29190613ba2565b925050819055506117f589600754611ffc565b61180181600754612219565b5050505050505050505050565b60007f01ffc9a7000000000000000000000000000000000000000000000000000000007bffffffffffffffffffffffffffffffffffffffffffffffffffffffff1916827bffffffffffffffffffffffffffffffffffffffffffffffffffffffff1916149050919050565b611881816123bd565b6118c0576040517f08c379a00000000000000000000000000000000000000000000000000000000081526004016118b790613809565b60405180910390fd5b50565b600033905090565b816004600083815260200190815260200160002060006101000a81548173ffffffffffffffffffffffffffffffffffffffff021916908373ffffffffffffffffffffffffffffffffffffffff160217905550808273ffffffffffffffffffffffffffffffffffffffff1661193e83610cb6565b73ffffffffffffffffffffffffffffffffffffffff167f8c5be1e5ebec7d5bd14f71427d1e84f3dd0314c0f7b2291e5b200ac8c7c3b92560405160405180910390a45050565b60008061199083610cb6565b90508073ffffffffffffffffffffffffffffffffffffffff168473ffffffffffffffffffffffffffffffffffffffff1614806119d257506119d181856114b8565b5b80611a1057508373ffffffffffffffffffffffffffffffffffffffff166119f8846105e7565b73ffffffffffffffffffffffffffffffffffffffff16145b91505092915050565b8273ffffffffffffffffffffffffffffffffffffffff16611a3982610cb6565b73ffffffffffffffffffffffffffffffffffffffff1614611a8f576040517f08c379a0000000000000000000000000000000000000000000000000000000008152600401611a8690613c48565b60405180910390fd5b600073ffffffffffffffffffffffffffffffffffffffff168273ffffffffffffffffffffffffffffffffffffffff1603611afe576040517f08c379a0000000000000000000000000000000000000000000000000000000008152600401611af590613cda565b60405180910390fd5b611b0b83838360016123fe565b8273ffffffffffffffffffffffffffffffffffffffff16611b2b82610cb6565b73ffffffffffffffffffffffffffffffffffffffff1614611b81576040517f08c379a0000000000000000000000000000000000000000000000000000000008152600401611b7890613c48565b60405180910390fd5b6004600082815260200190815260200160002060006101000a81549073ffffffffffffffffffffffffffffffffffffffff02191690556001600360008573ffffffffffffffffffffffffffffffffffffffff1673ffffffffffffffffffffffffffffffffffffffff168152602001908152602001600020600082825403925050819055506001600360008473ffffffffffffffffffffffffffffffffffffffff1673ffffffffffffffffffffffffffffffffffffffff16815260200190815260200160002060008282540192505081905550816002600083815260200190815260200160002060006101000a81548173ffffffffffffffffffffffffffffffffffffffff021916908373ffffffffffffffffffffffffffffffffffffffff160217905550808273ffffffffffffffffffffffffffffffffffffffff168473ffffffffffffffffffffffffffffffffffffffff167fddf252ad1be2c89b69c2b068fc378daa952ba7f163c4a11628f55a4df523b3ef60405160405180910390a4611d0d8383836001612524565b505050565b60006002600083815260200190815260200160002060009054906101000a900473ffffffffffffffffffffffffffffffffffffffff169050919050565b8173ffffffffffffffffffffffffffffffffffffffff168373ffffffffffffffffffffffffffffffffffffffff1603611dbd576040517f08c379a0000000000000000000000000000000000000000000000000000000008152600401611db490613d46565b60405180910390fd5b80600560008573ffffffffffffffffffffffffffffffffffffffff1673ffffffffffffffffffffffffffffffffffffffff16815260200190815260200160002060008473ffffffffffffffffffffffffffffffffffffffff1673ffffffffffffffffffffffffffffffffffffffff16815260200190815260200160002060006101000a81548160ff0219169083151502179055508173ffffffffffffffffffffffffffffffffffffffff168373ffffffffffffffffffffffffffffffffffffffff167f17307eab39ab6107e8899845ad3d59bd9653f200f220920489ca2b5937696c3183604051611eae9190612985565b60405180910390a3505050565b611ec6848484611a19565b611ed28484848461252a565b611f11576040517f08c379a0000000000000000000000000000000000000000000000000000000008152600401611f0890613dd8565b60405180910390fd5b50505050565b606060405180602001604052806000815250905090565b606060006001611f3d846126b1565b01905060008167ffffffffffffffff811115611f5c57611f5b612e65565b5b6040519080825280601f01601f191660200182016040528015611f8e5781602001600182028036833780820191505090505b509050600082602001820190505b600115611ff1578080600190039150507f3031323334353637383961626364656600000000000000000000000000000000600a86061a8153600a8581611fe557611fe4613df8565b5b04945060008503611f9c575b819350505050919050565b600073ffffffffffffffffffffffffffffffffffffffff168273ffffffffffffffffffffffffffffffffffffffff160361206b576040517f08c379a000000000000000000000000000000000000000000000000000000000815260040161206290613e73565b60405180910390fd5b612074816123bd565b156120b4576040517f08c379a00000000000000000000000000000000000000000000000000000000081526004016120ab90613edf565b60405180910390fd5b6120c26000838360016123fe565b6120cb816123bd565b1561210b576040517f08c379a000000000000000000000000000000000000000000000000000000000815260040161210290613edf565b60405180910390fd5b6001600360008473ffffffffffffffffffffffffffffffffffffffff1673ffffffffffffffffffffffffffffffffffffffff16815260200190815260200160002060008282540192505081905550816002600083815260200190815260200160002060006101000a81548173ffffffffffffffffffffffffffffffffffffffff021916908373ffffffffffffffffffffffffffffffffffffffff160217905550808273ffffffffffffffffffffffffffffffffffffffff16600073ffffffffffffffffffffffffffffffffffffffff167fddf252ad1be2c89b69c2b068fc378daa952ba7f163c4a11628f55a4df523b3ef60405160405180910390a4612215600083836001612524565b5050565b8160096000838152602001908152602001600020600082015181600001908161224291906140ab565b50602082015181600101908161225891906140ab565b5060408201518160020160006101000a81548173ffffffffffffffffffffffffffffffffffffffff021916908373ffffffffffffffffffffffffffffffffffffffff16021790555060608201518160030160006101000a81548173ffffffffffffffffffffffffffffffffffffffff021916908373ffffffffffffffffffffffffffffffffffffffff16021790555060808201518160030160146101000a81548160ff0219169083600281111561231257612311612bd6565b5b021790555060a08201518160030160156101000a81548160ff02191690831515021790555060c08201518160030160166101000a81548160ff0219169083600281111561236257612361612bd6565b5b021790555060e08201518160030160176101000a81548163ffffffff021916908363ffffffff16021790555061010082015181600301601b6101000a81548163ffffffff021916908363ffffffff1602179055509050505050565b60008073ffffffffffffffffffffffffffffffffffffffff166123df83611d12565b73ffffffffffffffffffffffffffffffffffffffff1614159050919050565b600181111561251e57600073ffffffffffffffffffffffffffffffffffffffff168473ffffffffffffffffffffffffffffffffffffffff16146124925780600360008673ffffffffffffffffffffffffffffffffffffffff1673ffffffffffffffffffffffffffffffffffffffff168152602001908152602001600020600082825461248a919061417d565b925050819055505b600073ffffffffffffffffffffffffffffffffffffffff168373ffffffffffffffffffffffffffffffffffffffff161461251d5780600360008573ffffffffffffffffffffffffffffffffffffffff1673ffffffffffffffffffffffffffffffffffffffff16815260200190815260200160002060008282546125159190613ba2565b925050819055505b5b50505050565b50505050565b600061254b8473ffffffffffffffffffffffffffffffffffffffff16612804565b156126a4578373ffffffffffffffffffffffffffffffffffffffff1663150b7a026125746118c3565b8786866040518563ffffffff1660e01b81526004016125969493929190614206565b6020604051808303816000875af19250505080156125d257506040513d601f19601f820116820180604052508101906125cf9190614267565b60015b612654573d8060008114612602576040519150601f19603f3d011682016040523d82523d6000602084013e612607565b606091505b50600081510361264c576040517f08c379a000000000000000000000000000000000000000000000000000000000815260040161264390613dd8565b60405180910390fd5b805181602001fd5b63150b7a0260e01b7bffffffffffffffffffffffffffffffffffffffffffffffffffffffff1916817bffffffffffffffffffffffffffffffffffffffffffffffffffffffff1916149150506126a9565b600190505b949350505050565b600080600090507a184f03e93ff9f4daa797ed6e38ed64bf6a1f010000000000000000831061270f577a184f03e93ff9f4daa797ed6e38ed64bf6a1f010000000000000000838161270557612704613df8565b5b0492506040810190505b6d04ee2d6d415b85acef8100000000831061274c576d04ee2d6d415b85acef8100000000838161274257612741613df8565b5b0492506020810190505b662386f26fc10000831061277b57662386f26fc10000838161277157612770613df8565b5b0492506010810190505b6305f5e10083106127a4576305f5e100838161279a57612799613df8565b5b0492506008810190505b61271083106127c95761271083816127bf576127be613df8565b5b0492506004810190505b606483106127ec57606483816127e2576127e1613df8565b5b0492506002810190505b600a83106127fb576001810190505b80915050919050565b6000808273ffffffffffffffffffffffffffffffffffffffff163b119050919050565b6040518061012001604052806060815260200160608152602001600073ffffffffffffffffffffffffffffffffffffffff168152602001600073ffffffffffffffffffffffffffffffffffffffff1681526020016000600281111561288f5761288e612bd6565b5b8152602001600015158152602001600060028111156128b1576128b0612bd6565b5b8152602001600063ffffffff168152602001600063ffffffff1681525090565b6000604051905090565b600080fd5b600080fd5b60007fffffffff0000000000000000000000000000000000000000000000000000000082169050919050565b61291a816128e5565b811461292557600080fd5b50565b60008135905061293781612911565b92915050565b600060208284031215612953576129526128db565b5b600061296184828501612928565b91505092915050565b60008115159050919050565b61297f8161296a565b82525050565b600060208201905061299a6000830184612976565b92915050565b600081519050919050565b600082825260208201905092915050565b60005b838110156129da5780820151818401526020810190506129bf565b60008484015250505050565b6000601f19601f8301169050919050565b6000612a02826129a0565b612a0c81856129ab565b9350612a1c8185602086016129bc565b612a25816129e6565b840191505092915050565b60006020820190508181036000830152612a4a81846129f7565b905092915050565b6000819050919050565b612a6581612a52565b8114612a7057600080fd5b50565b600081359050612a8281612a5c565b92915050565b600060208284031215612a9e57612a9d6128db565b5b6000612aac84828501612a73565b91505092915050565b600073ffffffffffffffffffffffffffffffffffffffff82169050919050565b6000612ae082612ab5565b9050919050565b612af081612ad5565b82525050565b6000602082019050612b0b6000830184612ae7565b92915050565b612b1a81612ad5565b8114612b2557600080fd5b50565b600081359050612b3781612b11565b92915050565b60008060408385031215612b5457612b536128db565b5b6000612b6285828601612b28565b9250506020612b7385828601612a73565b9150509250929050565b600082825260208201905092915050565b6000612b99826129a0565b612ba38185612b7d565b9350612bb38185602086016129bc565b612bbc816129e6565b840191505092915050565b612bd081612ad5565b82525050565b7f4e487b7100000000000000000000000000000000000000000000000000000000600052602160045260246000fd5b60038110612c1657612c15612bd6565b5b50565b6000819050612c2782612c05565b919050565b6000612c3782612c19565b9050919050565b612c4781612c2c565b82525050565b612c568161296a565b82525050565b60038110612c6d57612c6c612bd6565b5b50565b6000819050612c7e82612c5c565b919050565b6000612c8e82612c70565b9050919050565b612c9e81612c83565b82525050565b600063ffffffff82169050919050565b612cbd81612ca4565b82525050565b6000610120830160008301518482036000860152612ce18282612b8e565b91505060208301518482036020860152612cfb8282612b8e565b9150506040830151612d106040860182612bc7565b506060830151612d236060860182612bc7565b506080830151612d366080860182612c3e565b5060a0830151612d4960a0860182612c4d565b5060c0830151612d5c60c0860182612c95565b5060e0830151612d6f60e0860182612cb4565b50610100830151612d84610100860182612cb4565b508091505092915050565b60006020820190508181036000830152612da98184612cc3565b905092915050565b600080600060608486031215612dca57612dc96128db565b5b6000612dd886828701612b28565b9350506020612de986828701612b28565b9250506040612dfa86828701612a73565b9150509250925092565b600060208284031215612e1a57612e196128db565b5b6000612e2884828501612b28565b91505092915050565b612e3a81612a52565b82525050565b6000602082019050612e556000830184612e31565b92915050565b600080fd5b600080fd5b7f4e487b7100000000000000000000000000000000000000000000000000000000600052604160045260246000fd5b612e9d826129e6565b810181811067ffffffffffffffff82111715612ebc57612ebb612e65565b5b80604052505050565b6000612ecf6128d1565b9050612edb8282612e94565b919050565b600067ffffffffffffffff821115612efb57612efa612e65565b5b612f04826129e6565b9050602081019050919050565b82818337600083830152505050565b6000612f33612f2e84612ee0565b612ec5565b905082815260208101848484011115612f4f57612f4e612e60565b5b612f5a848285612f11565b509392505050565b600082601f830112612f7757612f76612e5b565b5b8135612f87848260208601612f20565b91505092915050565b60038110612f9d57600080fd5b50565b600081359050612faf81612f90565b92915050565b612fbe81612ca4565b8114612fc957600080fd5b50565b600081359050612fdb81612fb5565b92915050565b600080600080600060a08688031215612ffd57612ffc6128db565b5b600086013567ffffffffffffffff81111561301b5761301a6128e0565b5b61302788828901612f62565b955050602086013567ffffffffffffffff811115613048576130476128e0565b5b61305488828901612f62565b945050604061306588828901612fa0565b935050606061307688828901612fcc565b925050608061308788828901612fcc565b9150509295509295909350565b61309d81612c2c565b82525050565b6130ac81612c83565b82525050565b6130bb81612ca4565b82525050565b60006101208201905081810360008301526130dc818c6129f7565b905081810360208301526130f0818b6129f7565b90506130ff604083018a612ae7565b61310c6060830189612ae7565b6131196080830188613094565b61312660a0830187612976565b61313360c08301866130a3565b61314060e08301856130b2565b61314e6101008301846130b2565b9a9950505050505050505050565b6131658161296a565b811461317057600080fd5b50565b6000813590506131828161315c565b92915050565b6000806040838503121561319f5761319e6128db565b5b60006131ad85828601612b28565b92505060206131be85828601613173565b9150509250929050565b600067ffffffffffffffff8211156131e3576131e2612e65565b5b6131ec826129e6565b9050602081019050919050565b600061320c613207846131c8565b612ec5565b90508281526020810184848401111561322857613227612e60565b5b613233848285612f11565b509392505050565b600082601f8301126132505761324f612e5b565b5b81356132608482602086016131f9565b91505092915050565b60008060008060808587031215613283576132826128db565b5b600061329187828801612b28565b94505060206132a287828801612b28565b93505060406132b387828801612a73565b925050606085013567ffffffffffffffff8111156132d4576132d36128e0565b5b6132e08782880161323b565b91505092959194509250565b60008060408385031215613303576133026128db565b5b600061331185828601612b28565b925050602061332285828601612b28565b9150509250929050565b60008060008060008060c08789031215613349576133486128db565b5b600087013567ffffffffffffffff811115613367576133666128e0565b5b61337389828a01612f62565b965050602087013567ffffffffffffffff811115613394576133936128e0565b5b6133a089828a01612f62565b95505060406133b189828a01612b28565b94505060606133c289828a01612fa0565b93505060806133d389828a01612fcc565b92505060a06133e489828a01612fcc565b9150509295509295509295565b7f4e487b7100000000000000000000000000000000000000000000000000000000600052602260045260246000fd5b6000600282049050600182168061343857607f821691505b60208210810361344b5761344a6133f1565b5b50919050565b7f4552433732313a20617070726f76616c20746f2063757272656e74206f776e6560008201527f7200000000000000000000000000000000000000000000000000000000000000602082015250565b60006134ad6021836129ab565b91506134b882613451565b604082019050919050565b600060208201905081810360008301526134dc816134a0565b9050919050565b7f4552433732313a20617070726f76652063616c6c6572206973206e6f7420746f60008201527f6b656e206f776e6572206f7220617070726f76656420666f7220616c6c000000602082015250565b600061353f603d836129ab565b915061354a826134e3565b604082019050919050565b6000602082019050818103600083015261356e81613532565b9050919050565b7f4552433732313a2063616c6c6572206973206e6f7420746f6b656e206f776e6560008201527f72206f7220617070726f76656400000000000000000000000000000000000000602082015250565b60006135d1602d836129ab565b91506135dc82613575565b604082019050919050565b60006020820190508181036000830152613600816135c4565b9050919050565b7f54686973206f7065726174696f6e2063616e206f6e6c7920626520706572666f60008201527f726d6564206279206576656e74206f7267616e697a6572000000000000000000602082015250565b60006136636037836129ab565b915061366e82613607565b604082019050919050565b6000602082019050818103600083015261369281613656565b9050919050565b7f54686973206f7065726174696f6e2063616e6e6f7420626520706572666f726d60008201527f6564206173204576656e74206973206e6f7420617070726f7665640000000000602082015250565b60006136f5603b836129ab565b915061370082613699565b604082019050919050565b60006020820190508181036000830152613724816136e8565b9050919050565b7f54686973206f7065726174696f6e2063616e6e206f6e6c79206265207065726660008201527f6f726d65642062792061646d696e6973747261746f7200000000000000000000602082015250565b60006137876036836129ab565b91506137928261372b565b604082019050919050565b600060208201905081810360008301526137b68161377a565b9050919050565b7f4552433732313a20696e76616c696420746f6b656e2049440000000000000000600082015250565b60006137f36018836129ab565b91506137fe826137bd565b602082019050919050565b60006020820190508181036000830152613822816137e6565b9050919050565b7f4552433732313a2061646472657373207a65726f206973206e6f74206120766160008201527f6c6964206f776e65720000000000000000000000000000000000000000000000602082015250565b60006138856029836129ab565b915061389082613829565b604082019050919050565b600060208201905081810360008301526138b481613878565b9050919050565b600081905092915050565b60006138d1826129a0565b6138db81856138bb565b93506138eb8185602086016129bc565b80840191505092915050565b600061390382856138c6565b915061390f82846138c6565b91508190509392505050565b60008151905061392a81612b11565b92915050565b600060208284031215613946576139456128db565b5b60006139548482850161391b565b91505092915050565b60006080820190506139726000830187612ae7565b61397f60208301866130b2565b61398c60408301856130a3565b6139996060830184612ae7565b95945050505050565b6000815190506139b18161315c565b92915050565b6000602082840312156139cd576139cc6128db565b5b60006139db848285016139a2565b91505092915050565b7f54686973206f7065726174696f6e2063616e206f6e6c7920626520706572666f60008201527f6d656420627920726567697374657265642053747564656e7473000000000000602082015250565b6000613a40603a836129ab565b9150613a4b826139e4565b604082019050919050565b60006020820190508181036000830152613a6f81613a33565b9050919050565b6000604082019050613a8b6000830185612ae7565b613a9860208301846130a3565b9392505050565b600081519050613aae81612fb5565b92915050565b600060208284031215613aca57613ac96128db565b5b6000613ad884828501613a9f565b91505092915050565b7f5468652053747564656e7420646f65736e27742068617665207468652072657160008201527f7569726564206e6f206f6620746f6b656e732000000000000000000000000000602082015250565b6000613b3d6033836129ab565b9150613b4882613ae1565b604082019050919050565b60006020820190508181036000830152613b6c81613b30565b9050919050565b7f4e487b7100000000000000000000000000000000000000000000000000000000600052601160045260246000fd5b6000613bad82612a52565b9150613bb883612a52565b9250828201905080821115613bd057613bcf613b73565b5b92915050565b7f4552433732313a207472616e736665722066726f6d20696e636f72726563742060008201527f6f776e6572000000000000000000000000000000000000000000000000000000602082015250565b6000613c326025836129ab565b9150613c3d82613bd6565b604082019050919050565b60006020820190508181036000830152613c6181613c25565b9050919050565b7f4552433732313a207472616e7366657220746f20746865207a65726f2061646460008201527f7265737300000000000000000000000000000000000000000000000000000000602082015250565b6000613cc46024836129ab565b9150613ccf82613c68565b604082019050919050565b60006020820190508181036000830152613cf381613cb7565b9050919050565b7f4552433732313a20617070726f766520746f2063616c6c657200000000000000600082015250565b6000613d306019836129ab565b9150613d3b82613cfa565b602082019050919050565b60006020820190508181036000830152613d5f81613d23565b9050919050565b7f4552433732313a207472616e7366657220746f206e6f6e20455243373231526560008201527f63656976657220696d706c656d656e7465720000000000000000000000000000602082015250565b6000613dc26032836129ab565b9150613dcd82613d66565b604082019050919050565b60006020820190508181036000830152613df181613db5565b9050919050565b7f4e487b7100000000000000000000000000000000000000000000000000000000600052601260045260246000fd5b7f4552433732313a206d696e7420746f20746865207a65726f2061646472657373600082015250565b6000613e5d6020836129ab565b9150613e6882613e27565b602082019050919050565b60006020820190508181036000830152613e8c81613e50565b9050919050565b7f4552433732313a20746f6b656e20616c7265616479206d696e74656400000000600082015250565b6000613ec9601c836129ab565b9150613ed482613e93565b602082019050919050565b60006020820190508181036000830152613ef881613ebc565b9050919050565b60008190508160005260206000209050919050565b60006020601f8301049050919050565b600082821b905092915050565b600060088302613f617fffffffffffffffffffffffffffffffffffffffffffffffffffffffffffffffff82613f24565b613f6b8683613f24565b95508019841693508086168417925050509392505050565b6000819050919050565b6000613fa8613fa3613f9e84612a52565b613f83565b612a52565b9050919050565b6000819050919050565b613fc283613f8d565b613fd6613fce82613faf565b848454613f31565b825550505050565b600090565b613feb613fde565b613ff6818484613fb9565b505050565b5b8181101561401a5761400f600082613fe3565b600181019050613ffc565b5050565b601f82111561405f5761403081613eff565b61403984613f14565b81016020851015614048578190505b61405c61405485613f14565b830182613ffb565b50505b505050565b600082821c905092915050565b600061408260001984600802614064565b1980831691505092915050565b600061409b8383614071565b9150826002028217905092915050565b6140b4826129a0565b67ffffffffffffffff8111156140cd576140cc612e65565b5b6140d78254613420565b6140e282828561401e565b600060209050601f8311600181146141155760008415614103578287015190505b61410d858261408f565b865550614175565b601f19841661412386613eff565b60005b8281101561414b57848901518255600182019150602085019450602081019050614126565b868310156141685784890151614164601f891682614071565b8355505b6001600288020188555050505b505050505050565b600061418882612a52565b915061419383612a52565b92508282039050818111156141ab576141aa613b73565b5b92915050565b600081519050919050565b600082825260208201905092915050565b60006141d8826141b1565b6141e281856141bc565b93506141f28185602086016129bc565b6141fb816129e6565b840191505092915050565b600060808201905061421b6000830187612ae7565b6142286020830186612ae7565b6142356040830185612e31565b818103606083015261424781846141cd565b905095945050505050565b60008151905061426181612911565b92915050565b60006020828403121561427d5761427c6128db565b5b600061428b84828501614252565b9150509291505056fea2646970667358221220e8d8c26607b5f72806afb307d35c2f90a85fdb86ef7f7aa52309585bbadd900564736f6c63430008110033",
  "immutableReferences": {},
  "source": "// SPDX-License-Identifier: MIT\npragma abicoder v2;\npragma solidity >=0.7.0 <0.9.0;\n\nimport \"@openzeppelin/contracts/token/ERC721/ERC721.sol\";\n\nimport {Student} from \"./StdTokenSys.sol\";\n\ncontract ASTEvent is ERC721 {\n    address public owner;\n    uint256 public tokenCounter;\n    enum EventState {\n        Upcoming,\n        Live,\n        Finished\n    }\n    Student std;\n    struct EventDetails {\n        string name;\n        string metadata;\n        address organizer;\n        address winner;\n        EventState state;\n        bool approval;\n        Student.TokenKind kind;\n        uint32 tokenAmt;\n        uint32 stakeAmt;\n    }\n    mapping(uint256 => EventDetails) public astEvents;\n    modifier isStudent(address stdAddr) {\n        require(\n            std.getStdStatus(stdAddr),\n            \"This operation can only be perfomed by registered Students\"\n        );\n        _;\n    }\n    modifier hasToken(\n        address stdAddr,\n        Student.TokenKind kind,\n        uint32 stakeAmt\n    ) {\n        require(\n            stakeAmt <= std.getTokenAmt(stdAddr, kind) && stakeAmt >= 1,\n            \"The Student doesn't have the required no of tokens \"\n        );\n        _;\n    }\n\n    modifier isOrganizer(uint256 tokenId) {\n        require(\n            msg.sender == astEvents[tokenId].organizer,\n            \"This operation can only be performed by event organizer\"\n        );\n        _;\n    }\n    modifier onlyAdmin() {\n        require(\n            msg.sender == owner,\n            \"This operation cann only be performed by administrator\"\n        );\n        _;\n    }\n\n    modifier isApproved(uint256 tokenId) {\n        require(\n            astEvents[tokenId].approval,\n            \"This operation cannot be performed as Event is not approved\"\n        );\n        _;\n    }\n\n    constructor(address stdContractAddress) ERC721(\"STEvents\", \"STE\") {\n        std = Student(stdContractAddress);\n        owner = msg.sender;\n        tokenCounter = 0;\n    }\n\n    function createASTEvent(\n        string memory name,\n        string memory metadata,\n        address organizer,\n        Student.TokenKind kind,\n        uint32 tokenAmt,\n        uint32 stakeAmt\n    ) public isStudent(organizer) hasToken(organizer, kind, stakeAmt) {\n        EventDetails memory stdEvent = EventDetails({\n            name: name,\n            metadata: metadata,\n            organizer: organizer,\n            state: EventState.Upcoming,\n            winner: address(0),\n            tokenAmt: tokenAmt,\n            stakeAmt: stakeAmt,\n            kind: kind,\n            approval: false\n        });\n        tokenCounter += 1;\n        _mint(organizer, tokenCounter);\n        _setEventDetails(stdEvent, tokenCounter);\n    }\n\n    function _setEventDetails(EventDetails memory stdEvent, uint256 tokenId)\n        internal\n    {\n        astEvents[tokenId] = stdEvent;\n    }\n\n    function endASTEvent(address winStd, uint256 tokenId)\n        external\n        isOrganizer(tokenId)\n        isApproved(tokenId)\n    {\n        astEvents[tokenId].state = EventState.Finished;\n        astEvents[tokenId].winner = winStd;\n        Student.TokenKind kind = astEvents[tokenId].kind;\n        uint32 amt = astEvents[tokenId].tokenAmt;\n        std.addToken(winStd, amt, kind, std.getOwner());\n    }\n\n    function setStdEventLive(uint256 tokenId)\n        external\n        isOrganizer(tokenId)\n        isApproved(tokenId)\n    {\n        astEvents[tokenId].state = EventState.Live;\n    }\n\n    function approveEvent(uint256 tokenId) external onlyAdmin returns (bool) {\n        astEvents[tokenId].approval = true;\n        return true;\n    }\n\n    function getASTEventData(uint256 tokenId)\n        external\n        view\n        returns (EventDetails memory)\n    {\n        return astEvents[tokenId];\n    }\n\n    function submitEvent(\n        string memory eventName,\n        string memory metadata,\n        Student.TokenKind kind,\n        uint32 tokenAmt,\n        uint32 stakeAmt\n    ) external {\n        createASTEvent(\n            eventName,\n            metadata,\n            msg.sender,\n            kind,\n            tokenAmt,\n            stakeAmt\n        );\n    }\n}\n",
  "sourcePath": "/home/v4zha/mec/ast_contracts/contracts/StdEvents.sol",
  "compiler": {
    "name": "solc",
    "version": "0.8.17+commit.8df45f5f.Emscripten.clang"
  },
  "schemaVersion": "3.4.11",
  "updatedAt": "2022-12-17T17:10:12.286Z",
  "networkType": "ethereum",
  "devdoc": {
    "kind": "dev",
    "methods": {
      "approve(address,uint256)": {
        "details": "See {IERC721-approve}."
      },
      "balanceOf(address)": {
        "details": "See {IERC721-balanceOf}."
      },
      "getApproved(uint256)": {
        "details": "See {IERC721-getApproved}."
      },
      "isApprovedForAll(address,address)": {
        "details": "See {IERC721-isApprovedForAll}."
      },
      "name()": {
        "details": "See {IERC721Metadata-name}."
      },
      "ownerOf(uint256)": {
        "details": "See {IERC721-ownerOf}."
      },
      "safeTransferFrom(address,address,uint256)": {
        "details": "See {IERC721-safeTransferFrom}."
      },
      "safeTransferFrom(address,address,uint256,bytes)": {
        "details": "See {IERC721-safeTransferFrom}."
      },
      "setApprovalForAll(address,bool)": {
        "details": "See {IERC721-setApprovalForAll}."
      },
      "supportsInterface(bytes4)": {
        "details": "See {IERC165-supportsInterface}."
      },
      "symbol()": {
        "details": "See {IERC721Metadata-symbol}."
      },
      "tokenURI(uint256)": {
        "details": "See {IERC721Metadata-tokenURI}."
      },
      "transferFrom(address,address,uint256)": {
        "details": "See {IERC721-transferFrom}."
      }
    },
    "version": 1
  },
  "userdoc": {
    "kind": "user",
    "methods": {},
    "version": 1
  }
}